:020000040800F2
:100000008805002001010008E13100087929000875
:10001000DD310008990B00082533000800000000BE
:10002000000000000000000000000000E9310008AE
:100030009D0B000800000000E5310008ED310008CC
:100040001B0100081B0100081B0100081B01000820
:100050001B0100081B0100081B0100081B01000810
:100060001B0100081B0100081B0100081B01000800
:100070001B0100081B0100081B0100081B010008F0
:100080001B0100081B0100081B0100081B010008E0
:100090001B0100081B0100081B0100081B010008D0
:1000A0001B010008F53100081B0100081B010008B6
:1000B0001B0100081B0100081B0100081B010008B0
:1000C0001B0100081B0100081B0100081B010008A0
:1000D0001B0100080D330008193300081B0100083C
:1000E0001B0100081B0100081B010008DFF80CD0F1
:1000F00000F0DEFC004800470540000888050020AD
:100100000648804706480047FEE7FEE7FEE7FEE7B1
:10011000FEE7FEE7FEE7FEE7FEE7FEE7F131000857
:10012000ED0000082DE9F0410024061B254671F181
:10013000000605DA01240027D0EB070067EB010178
:10014000161E73F1000605DA0027D2EB070201251F
:1001500067EB030300F037FB86460E4617469C46C6
:10016000AC4204D00025D0EB050E65EB010624B1AE
:100170000020D2EB000760EB030C704631463A4694
:100180006346BDE8F08130B504460020034600E038
:100190005B1C934203D2E05CCD5C401BF8D030BDC9
:1001A000F0B480EA0102D40F4200B2EB410F02D258
:1001B0000246084611464A0042D0C30DDDB2C1F3E3
:1001C000C752AD1A202D35DAC1F3160141F40002F1
:1001D00004B15242C5F1200602FA06F12A41104448
:1001E000B3EBD05F23D0C4B1012DA0EBC35009DC29
:1001F000F0BC4FF0004202EAC352DBB200F500004F
:1002000000F03CBB400000F1807000EBC350A0F157
:10021000807040EAD170490009E0490841EAC071A4
:10022000A0EBC35000F50000400800EBC350F0BC49
:1002300000F01BBB6142012202EB4101001BF6E70B
:10024000F0BC704781F00041AAE780F00040A7E7CA
:1002500080EA010210B502F00043400022D04A00BB
:100260001FD0010E01EB1261C0F35600C2F356021B
:1002700040F4000042F40002A0FB022000047F3999
:10028000140400D0401C50EA124001D44000491E22
:10029000C2B20C0604EBD010401C4008802A02D0E9
:1002A00003E0002010BD20F00100002900DA00204A
:1002B000184310BD30B480EA010202F0004530F06E
:1002C000004221F0004013D090B1C30DD40DC2F311
:1002D0001601C0F31600E41A41F4000140F40002D4
:1002E0007D34914201D3641C00E04900002C02DA05
:1002F00030BC002070474FF400000023914201D32E
:10030000891A034340084FEA4101F7D151B19142A4
:1003100002D14FF0004105E002D24FF0010101E0AF
:100320006FF0010103EBC450284430BC00F09DBACB
:100330002DE9FE4F804681EA0300C00F0C46009075
:1003400021F0004123F00045B8EB0200A94105D29D
:100350004046214690461C460B46024623F000408C
:10036000104347D0270DC7F30A00C3F30A51029088
:10037000401A019040286BDAC3F3130040F4801B4D
:100380000098924620B10023D2EB030A63EB0B0BDB
:1003900001985946C0F14002504600F045FA064621
:1003A0000D4650465946019A00F04DFA10EB0800F0
:1003B0006141002487EA115284EAE7731A4340D06E
:1003C000009A62B3019A012A4FEA075215DC001B1A
:1003D00061EB02014FF0004202EA0752CDE9004210
:1003E000001C41F5801132462B4600F0B3FA03B0F1
:1003F000BDE8F08F40462146F9E7001B61EB0201A2
:10040000001C41F5801300185B412018A2F500176D
:1004100047EB030140EAD570B6196D4111E06D0854
:100420004FEA360645EAC0754FEA0752001B61EBFA
:100430000201001C41F5801149084FEA3000001903
:10044000514132462B4603B0BDE8F04F00F073BA7D
:100450000098012240000023D0EB020263EBE0731E
:10046000009821464FEAE074B8EB000061EB04010C
:10047000E9E783F000435BE781F0004158E72DE9AD
:10048000FE4F81EA030404F0004421F0004100948F
:100490004FF0000B23F0004350EA01045ED052EA13
:1004A00003045BD0C3F30A54C1F30A552C44A4F2ED
:1004B000F3340194A0FB0254C1F3130141F4801101
:1004C000C3F3130343F4801301FB024400FB034E08
:1004D000840A970A44EA815447EA8357A4FB0768D1
:1004E00002958D0A05FB07854FEA932C04FB0C54FB
:1004F0002705029D4FEA065847EA1637B5EB08056F
:100500006EEB070C870E920E47EA811742EA8312C0
:10051000A7FB0201B6EB0B0164EB00042B0D43EAD1
:100520000C335E1844EB1C50DA465146E7FB0201DF
:10053000C5F313044FEA0B3343EA14534FEA043272
:10054000019C43EA0603A4F10C040294009CCDE94B
:1005500000B400F0FFF903B0BDE8F08F00200146C1
:10056000F9E72DE9F04D81EA030404F0004B21F096
:10057000004514464FF0000A23F0004150EA0502FE
:1005800020D054EA01021DD0C5F30A570246C5F334
:100590001303C1F31300C1F30A5640F4801543F46A
:1005A0008013A7EB0608101BD64608F2FD3873EB44
:1005B000050002D308F1010801E092185B41B8F18F
:1005C000000F03DA00200146BDE8F08D00204FF453
:1005D0008011064684460EE0171B73EB050705D312
:1005E000121B63EB050306434CEA010C49084FEA72
:1005F000300092185B4150EA0107EDD152EA030046
:1006000012D082EA040083EA0501084305D0101BDA
:10061000AB4106D20122002306E000224FF0004346
:1006200002E06FF0010253101AEB06004CEB085188
:1006300010EB0A0041EB0B01BDE8F04D00F07BB977
:10064000002801DBC0F10040002901DBC1F10041BD
:10065000814201D80120704700207047002801DB4B
:10066000C0F10040002901DBC1F10041814201D20B
:100670000120704700207047002801DBC0F10040D6
:10068000002901DBC1F10041814201D30120704703
:1006900000207047002801DBC0F10040002901DB89
:1006A000C1F10041814201D901207047002070470B
:1006B000002801DBC0F10040002901DBC1F100414D
:1006C000814201D10120704700207047C10F80EAAC
:1006D000E0700844CA079623002100F0CFB89623A3
:1006E0000022114600F0CAB80EB5C10F80EAE070D2
:1006F0000844CA07002140F233438DE80E000A4641
:100700000B4600F027F903B000BD00F0004220F0D6
:100710000040C10DC0F3160040F400007F2901DA4B
:1007200000207047962903DCC1F19601C84001E022
:1007300096398840002AF4D04042704700F00042C9
:1007400030F000400AD0C10D01F56071C0F3160011
:1007500042EA0151C2084007114370470020014698
:10076000704701F0004330B421F0004150EA01022B
:1007700006D00A0DA2F56072C1F31301002A02DC53
:1007800030BC00207047440F44EAC104C100E018A7
:1007900030BC00EBC25000F068B830B50B460146E3
:1007A00000202022012409E021FA02F59D4205D310
:1007B00003FA02F5491B04FA02F52844151EA2F1BA
:1007C0000102F1DC30BD2DE9F05F054600209246C4
:1007D0009B4688460646814640241BE02846414603
:1007E0004746224600F076F953465A46C01A9141D0
:1007F00010D311461846224600F016F82D1A67EB62
:1008000001084F4622460120002100F00DF817EBA9
:1008100000094E41201EA4F10104DFDC48463146A8
:100820002A464346BDE8F09F202A04DB203A00FA1E
:1008300002F1002070479140C2F1200320FA03F337
:10084000194390407047202A06DBCB17203A41FA23
:1008500002F043EAE07306E041FA02F3D040C2F14D
:10086000200291400843194670470029A8BF7047ED
:10087000401C490008BF20F00100704710B4B0FAD6
:1008800080FC00FA0CF050EA010404BF10BC704771
:1008900049B1CCF1200421FA04F411FA0CF118BF8B
:1008A000012121430843A3EB0C01CB1D4FEA00615A
:1008B0004FEA102042BF002010BC704700EBC3502D
:1008C00010440029A4BF10BC7047401C490008BF59
:1008D00020F0010010BC7047F0B4002802DCF0BC2E
:1008E00000207047C0F3C751C0F3160040F4000069
:1008F000CA0701D14000491E3F2202EB61050022D8
:1009000011464FF4000626FA01F31344D41884422A
:1009100001D8001B1A464000491C1729F3DD51007D
:10092000814202D24FF0FF3100E0002102EBC550BE
:10093000F0BCFFF79ABF10B5141E73F1000408DA7B
:10094000401C41F1000192185B411A4301D120F093
:10095000010010BD2DE9F04D92469B4611B1B1FA50
:1009600081F202E0B0FA80F220329046FFF75CFF9D
:1009700004460F4640EA0A0041EA0B0153465A4634
:10098000084313D0114653EA010019D0C8F14002C0
:10099000504600F09FF805460E46504659464246DE
:1009A000FFF742FF084305D0012004E02046394606
:1009B000BDE8F08D0020054346EAE0762C4337433E
:1009C0000A986305E40AA0EB08000022FD0A44EA45
:1009D00047540A3002D500200146E9E70105101905
:1009E0006941DDE9084500196941BDE8F04DA2E71C
:1009F00070B521F0004303430CD0C1F30A55002425
:100A0000D5EB040564EB0403D617AD1AB34102DB42
:100A10000020014670BD201841EB025170BDC1F3AA
:100A20000A52C1F3130140F2FF3341F480119A429C
:100A300002DA00200146704740F233439A42A2F2A4
:100A4000334202DC524200F045B8FFF7EDBE000031
:100A500030B5041E71F1000404DB4FF00044404245
:100A600064EB0101141E73F1000405DB1C464FF01A
:100A70000043524263EB04038B4208BF824230BD05
:100A800030B5041E71F1000404DB4FF00044404215
:100A900064EB0101141E73F1000405DB1C464FF0EA
:100AA0000043524263EB0403994208BF904230BDB9
:100AB000064C074D06E0E06840F0010394E80700AB
:100AC00098471034AC42F6D3FFF714FBF87A0008CD
:100AD000187B0008202A04DB203A21FA02F00021CA
:100AE000704721FA02F3D040C2F12002914008433E
:100AF000194670472DE9F04D00231A461B1A8A410A
:100B000003DB00200146BDE8F08DC1F30A52C1F3BA
:100B1000130141F480154FF0000BD10702D10018EA
:100B20006D41521E0027044640F2FF11384601EB8A
:100B3000620A3E468046024600204FF48011FFF7CD
:100B4000C9FFC2197141BB1846EB0100B4EB030C9D
:100B500075EB000C04D3E41A65EB000517460E464E
:100B6000241908F101006D4180463428E3DDF919AC
:100B700046EB0600091BA84103D24FF0FF32134693
:100B800001E0002213461BEB070046EB0A51BDE8CB
:100B9000F04DFFF7D0BE0000FEE7000070470000F8
:100BA000EFF3108072B600BFFEE70000014690F838
:100BB0002100022816D10868D1E90FC3026822F08B
:100BC0000E020260026822F001020260012000FAB7
:100BD00003F2CCF8042081F821000020002281F8E3
:100BE00020207047042088630120002281F8202003
:100BF0007047000080B590F82110022924D10268C6
:100C0000116821F00E0111602F211368C4F2020156
:100C10008A4240F20401C4F2020123F0010313608E
:100C200016DD3023C4F202039A421DD04423C4F2DD
:100C300002039A421CD05823C4F202039A421DD1E7
:100C40004FF4803322E000BF04218163012080BD86
:100C50000823C4F202039A420ED01C23C4F20203FA
:100C60009A420BD1102311E04FF480730EE000BFC5
:100C70004FF480530AE000BF012307E001F1680C44
:100C80004FF08073624508BF4FF480130B60012161
:100C900080F82110426B002180F820100AB19047A3
:100CA0000021084680BD0000B0B5044600F032F9CE
:100CB000054640F20800C2F200000078611C18BF2F
:100CC000044400BF00F026F9401BA042FAD3B0BD97
:100CD0002DE9F04F82B00E68002E00F0038141F242
:100CE0000042C4F20102042340F2004E904208BFC9
:100CF00003234FF6FF7CC4F2010E0093002401236E
:100D0000C1F2100C4FF0000A4FF0000949E000BF9B
:100D1000012704F00C030F229A402BEA020207FA83
:100D200003F34FEA9A051A4346F82520D1F804B098
:100D300040F20C455FEACB22DEF8082054BF22EADD
:100D4000080242EA0802C4F20105CEF808202A6827
:100D50005FEA8B2354BF22EA080242EA08022A60B3
:100D60005FEA8B33DEF8042054BF22EA080242EA2D
:100D700008025FEACB33CEF80420DEF800204FF003
:100D8000010354BF22EA080242EA0802CEF800201A
:100D90000E680AF1010A36FA0AF204F1040400F0BE
:100DA000A18003FA0AF816EA080FF1D04E686645EA
:100DB00012DC122E56D8DFE806F0350B45495555A2
:100DC00055555555555555555555554D510000BF1F
:100DD000D1F80C9046E000BF4FF6FF72C1F221023D
:100DE00096420FDC0022C1F2110296421AD0002274
:100DF000C1F21202964215D00022C1F2210296429F
:100E000010D02FE00022C1F2220296420AD0002226
:100E1000C1F23102964205D00022C1F2320296425E
:100E200020D100BF8A684AB1012A14BFC0F81480DB
:100E3000C0F810804FF0080914E000BF4FF004091B
:100E400010E000BFCA6802F108090BE04FF000098A
:100E500008E000BFCA6802F1040903E0CA6802F1B1
:100E60000C0900BF22460646BAF1080F24BF203AFB
:100E7000043637680F25954027EA050509FA02F27E
:100E80002A433260CA79D2067FF582AF41F2180355
:100E9000C4F202031A68AEF57E7642F001021A60CF
:100EA0001A6802F001020192019A2AF0030256F830
:100EB00002B040F60002C4F20102904210D040F6A7
:100EC0000042C4F2010290423FF422AF41F200021C
:100ED000C4F20102009F904208BF022719E700BF39
:100EE000002716E702B0BDE8F08F000080680840D8
:100EF00018BF012070470000C26802EA0103914355
:100F000041EA034101617047002A08BF09040161F9
:100F10007047000040F28410C2F200000068704781
:100F200040F2080040F28411C2F20000C2F2000157
:100F300000780A68104408607047000080B542F2EB
:100F40000000C4F20200016841F0100101600320BA
:100F500000F086F80F2000F005F800F027F80020D8
:100F600080BD000070B540F20806C2F2000640F2F3
:100F700048013278C2F200014FF47A730968B3FB7A
:100F8000F2F20446B1FBF2F1084600F05BFB0F2CD5
:100F90004FF0010508D838B94FF0FF302146002244
:100FA000002500F031F87460284670BD82B041F22F
:100FB0001800C4F20200016841F0010101600168FB
:100FC00001F0010101910199416841F080514160B6
:100FD000406800F080500090009802B07047000018
:100FE000002848BF7047C1B200F01F00012202FA7A
:100FF00000F04EF20012CEF2000242EAD10121F0DE
:10100000030108607047000010B54EF60C5CCEF28C
:10101000000CDCF80030C3F3022E8EF00704042C21
:1010200028BF0424BEF103034FF0FF3E0EFA04F480
:1010300038BF0023A14399400EFA03F39A431143AA
:1010400000F00F0200F160430901043A03F5644324
:101050006244002848BF02F10C03197010BD000063
:101060004EF60C51CEF200010A684FF6FF031A400B
:1010700060F30A2242F0806040F0FD700860704723
:101080002DE9F04381B0002800F0858042F200088D
:10109000C4F202080446D8F800000D4600F007002C
:1010A00088420CD2D8F8000020F007002843C8F886
:1010B0000000D8F8000000F00700A8426BD12068BB
:1010C00041F204098107C4F2020917D5410705D589
:1010D000D9F8001041F4E061C9F80010010705D506
:1010E000D9F8001041F46051C9F80010D9F8001087
:1010F000A26821F0F0011143C9F80010C00741D1E6
:10110000D8F8000000F00700A8420CD9D8F8000079
:1011100020F007002843C8F80000D8F8000000F0CD
:101120000700A84237D12068410707D5D9F8001039
:10113000E26821F4E0611143C9F80010000708D506
:10114000D9F80000216920F4605040EAC100C9F8D4
:101150000000D9F8002002F00C00082841F200201D
:10116000C0F27A0050D146F6F053C2F38341C0F684
:101170000003595CD2033BD440F60010C0F23D009E
:10118000484341E0606802280AD001282AD159F872
:10119000041C890308D4012001B0BDE8F08300BF1E
:1011A00059F8041C8901F6D5D9F8001021F0030183
:1011B0000843C9F80000FFF7ADFE064641F2883744
:1011C000D9F80000616800F00C00B0EB810F97D0F7
:1011D000FFF7A0FE801BB842F2D9032001B0BDE8A2
:1011E000F08300BF59F8041C8907D4D5DCE700BFA1
:1011F000D9F8002046F6EE53C2F34042C0F6000391
:101200009A5C4843B0FBF2F0D9F8001046F6D6528B
:10121000C1F30311C0F60002515C40F2480220FA0B
:1012200001F140F20C00C2F200000068C2F20002BC
:101230001160FFF797FE002001B0BDE8F0830000C9
:1012400040F2480041F20401C2F20000C4F202017F
:101250000068096846F6E652C1F30221C0F60002B2
:10126000515CC8407047000040F2480041F2040160
:10127000C2F20000C4F202010068096846F6E652B4
:10128000C1F3C221C0F60002515CC84070470000A3
:101290002DE9F04182B0002868D00446007841F280
:1012A0000006C007C4F2020625D0706800F00C00EA
:1012B00004281BD0706800F00C00082802D1706868
:1012C000C00313D46068002800F06881B0F5A02F37
:1012D00000F07C81B0F5803F00F07C81306820F424
:1012E00080303060306820F4802076E13068800300
:1012F00001D56068D0B32078800718D5706810F0E9
:101300000C0F07D0706800F00C0008286ED17068D0
:10131000C0036BD43068800702D52069012825D12D
:101320003068616920F0F80040EAC1003060207840
:1013300000071FD42078400732D4E56995B1706862
:1013400000F00C00082840F08F80012D0ED070684E
:10135000216A00F480328A4208D1616A00F4701078
:10136000884203D1002002B0BDE8F081012002B024
:10137000BDE8F081A069002862D00020C4F24220BC
:101380000121C0F88014FFF7C5FD0546706A80078B
:1013900000F18C80FFF7BEFD401B0228F6D92AE140
:1013A000F06910F0805808D1F06940F08050F06189
:1013B000F06900F080500090009847F20007C4F2F6
:1013C00000073868C00529D4386840F48070386058
:1013D000FFF7A0FD054600BF3868C0051ED4FFF723
:1013E00099FD401B6428F7D905E100BF206900285A
:1013F00040F20000C4F2422000F08280012101602E
:10140000FFF788FD054600BF306880073FF588AFCD
:10141000FFF780FD401B0228F6D9ECE0E0680028C9
:1014200000F08080052800F09780012800F0988067
:10143000306A20F001003062306A20F0040092E04F
:101440000020C4F242200021C0F88014FFF762FDA2
:10145000054600BF706A80077FF56CAFFFF75AFD45
:10146000401B0228F6D9C6E00027C4F2422700201C
:101470003866FFF74FFD022D05460BD1306880011D
:1014800040F1BE80FFF746FD401B02284FF00300ED
:10149000F4D968E7306880017FF564AFFFF73AFD63
:1014A000401B02284FF00300F4D95CE740F24800EB
:1014B000C2F20000006844F6D351C1F26201A0FB01
:1014C0000101480A019000BF00BF0198411E002899
:1014D00001913FF42FAF00BF0198411E00280191F8
:1014E0003FF428AF00BF0198411E002801913FF44E
:1014F00021AF00BF0198411E00280191E4D119E7F6
:1015000000210160FFF706FD054600BF3068800737
:101510007FF50DAFFFF7FEFC401B02284FF00300E4
:10152000F4D920E7306A20F001003062306A20F000
:1015300004003062FFF7EEFC054641F2883700BF39
:10154000306A800720D5FFF7E5FC401BB8424FF01A
:101550000300F5D907E700BF306A40F004003062AD
:10156000306A40F001003062FFF7D4FC054641F2DA
:10157000883700BF306A800706D4FFF7CBFC401BDA
:10158000B842F7D937E000BFB8F1000F7FF4D5AE0D
:10159000F06920F08050F061CFE600BF306820F4A1
:1015A00080303060306820F480203060FFF7B2FC7B
:1015B000054600BF306880037FF59DAEFFF7AAFCAB
:1015C000401B64284FF00300F4D9CCE6306840F4A7
:1015D00080203060306840F480303060FFF79AFC43
:1015E000054600BF306880033FF585AEFFF792FCEB
:1015F000401B6428F6D9032002B0BDE8F08100BF8B
:10160000206AB0F5803F05D17168A26821F40031ED
:10161000114371607168626A21F4741111430843C7
:10162000706001203866FFF775FC04463068800161
:101630003FF598AEFFF76EFC001B02284FF0030049
:10164000F4D990E6411E0020B0EB116F1CBF0120C1
:1016500070474EF21002CEF2000251604EF6235156
:10166000CEF20001F0230B700721906011607047EB
:10167000704700007047000010B590F83C20012A28
:101680004FF0020233D080F83D200268D2F804E027
:10169000D2F808C00C682EF07003234340F2FF74A8
:1016A000C4F20004A24253600ADCB2F1804F13D0AE
:1016B00040F20043C4F200039A420DD011E000BF93
:1016C00042F60043C4F201039A4205D040F60003FB
:1016D000C4F200039A4204D149682CF080031943F4
:1016E00091600121002280F83D1080F83C201046D6
:1016F00010BD0000002804BF0120704710B504464B
:1017000090F83D0028B9002084F83C00204600F005
:1017100067F8022084F83D00206840F2FF730268F9
:10172000C4F2000342F6004C9842C4F2010C15DCEE
:10173000B0F1804F1AD040F20041C4F2000188425B
:1017400014D0984218DCB0F1804F1DD040F2004117
:10175000C4F20001884217D01AE000BF604505D0EE
:1017600040F60001C4F200018842EAD1A16822F0EB
:1017700070020A439842E6DD604505D040F600015C
:10178000C4F20001884203D1216922F440720A4365
:10179000A36922F08001D4F804E0E26819436045AF
:1017A0000160C262C0F828E002D16169CCF8301053
:1017B00001214161002084F8461084F83E1084F82D
:1017C0003F1084F8401084F8411084F8421084F8E7
:1017D000431084F8441084F8451084F83D1010BD7F
:1017E00080B582B0006842F60041C4F2010188422F
:1017F0001CBF02B080BD41F21800C4F202000168B3
:10180000002241F4006101600068012100F40060E1
:10181000019001981920FFF7F7FB192002B0BDE8ED
:101820008040FFF7DDBB000090F83D1001291CBF90
:1018300001207047022180F83D10006840F2FF72DD
:10184000C168C4F20002904241F00101C16009DCAC
:10185000B0F1804F12D040F20041C4F20001884242
:101860000CD012E042F60041C4F20101884205D0DA
:1018700040F60001C4F20001884206D1816801F0FF
:101880000701062904BF00207047016841F00101EB
:10189000016000207047000080B590F83C20012ACC
:1018A0004FF0020200F0C28080F83D20D0F800C066
:1018B0004FF67772DCF8083023EA0202CCF80820F1
:1018C0000B684F2B28DC1F2B44DD202B45D0302B01
:1018D00043D0402B40F0AC80D1F804E0C968DCF87C
:1018E0002030DCF8202022F00102CCF82020DCF8A7
:1018F000182022F0F00242EA011123F00A0242EA23
:101900000E02CCF81810CCF82020DCF8081041F0BA
:10191000470121F0300180E06F2B27DDB3F5005F38
:1019200048D0B3F5805F7AD0702B40F08180D1E948
:1019300001E3C968DCF8082043EA0E0322F47F4281
:1019400043EA01211143CCF80810DCF8081041F0FB
:10195000770162E00BB1102B6AD1DCF8081021F09E
:101960007001194341F0070157E000BF502B35D0FB
:10197000602B5DD1D1F804E0C968DCF82030DCF8D8
:10198000202022F01002CCF82020DCF8182022F4CD
:10199000704242EA013123F0A00242EA0E12CCF872
:1019A0001810CCF82020DCF8081041F0670121F075
:1019B000100132E0D1E901E3C968DCF8082043EA0C
:1019C0000E0322F47F4243EA01211143CCF80810B0
:1019D000DCF8081041F480411FE000BFD1F804E0BA
:1019E000C968DCF82030DCF8202022F00102CCF8B5
:1019F0002020DCF8182022F0F00242EA011123F046
:101A00000A0242EA0E02CCF81810CCF82020DCF8CA
:101A1000081041F0570121F02001CCF808100022F5
:101A2000012180F83D10002180F83C10104680BD57
:101A30000122F5E77047000010B501680446086907
:101A4000800744BFC8685FEA807039D408694007DE
:101A500044BFC8685FEA40703ED40869000744BFCD
:101A6000C8685FEA007045D40869C00644BFC8680A
:101A70005FEAC0604AD40869C0071CBFC8685FEA53
:101A8000C07051D10869000644BFC8685FEA0060B1
:101A900052D40869400644BFC8685FEA406053D426
:101AA0000869800646BFC8685FEA806010BD6FF0B5
:101AB000200220460A61BDE81040FFF7DBBD00BFF1
:101AC0006FF002000861012020778869800743D009
:101AD0002046FFF7AFFF45E06FF0040008610220E9
:101AE0002077886910F4407F40D02046FFF7A2FF9E
:101AF00042E000BF6FF00800086104202077C86949
:101B000080073DD02046FFF795FF3FE06FF01000C3
:101B1000086108202077C86910F4407F3AD0204639
:101B2000FFF788FF3CE000BF6FF00100086120462E
:101B300000F03EF82168A5E76FF0800008612046BC
:101B4000FFF796FD2168A4E76FF04000086120468A
:101B500000F0B0F92168A3E7204600F025F8204600
:101B600000F024F82168002020776FE7204600F07D
:101B70001BF8204600F01AF82168002020776CE757
:101B8000204600F011F8204600F010F821680020EF
:101B9000207769E7204600F007F8204600F006F8B5
:101BA00021680020207766E770470000704700003A
:101BB0002DE9F04385B040F25009C2F2000909F165
:101BC0001806044661CEFEF7A0FDA9F800002846DD
:101BD000FEF79BFDA9F802003046FEF796FD40F2A5
:101BE000AC01C2F200018C42A9F8040040F09980D7
:101BF00009F1240409F1280509F12C06204629469B
:101C0000324602F0C1FA0028F8D109F1060009F1C4
:101C1000080109F10A0201F0E1F8B9F90600B9F981
:101C20000860B9F90A50FEF75FFD0024C3F610748E
:101C300000222346FEF723FCFEF793FDC9F81800A7
:101C40003046FEF751FD00222346FEF718FCFEF752
:101C500088FDC9F81C002846FEF746FD00222346F1
:101C6000FEF70DFCFEF77DFDC9F8200009F10C0020
:101C700009F10E0109F1100201F0D2F8B9F90000E2
:101C8000D9F81840B9F90250B9F90460FEF71EFD01
:101C900001462046FEF7D6FAD9F81C7004462846BD
:101CA000FEF714FD01463846FEF7CCFAD9F820506D
:101CB00007463046FEF70AFD01462846FEF7C2FAFF
:101CC000054638463946FEF7C3FA06462046214601
:101CD000FEF7BEFA3146FEF763FA04462846294667
:101CE000FEF7B6FA2146FEF75BFA04F0E1FFD9F8F9
:101CF0003010012915D140F24C01C2F200010968EF
:101D0000FEF79EFC68B9D9F8141061A2B1FA81F00F
:101D10004009C9F814005FA0002908BF104604F06C
:101D20008FFFD9F83400012818D1D9E90940D9F832
:101D30002C50FEF703FD804620460F46FEF7FEFCC2
:101D4000044628460E46FEF7F9FC029053A0424690
:101D50003B46CDE90046039103F060FFD9F8380017
:101D6000012840F09180D9F828400021CCF2F011F0
:101D70002046FEF765FC78B90021C4F2F011204638
:101D8000FEF76CFC40B147F66120C0F6000005B0DC
:101D9000BDE8F04304F054BF0021C4F27021204696
:101DA000FEF74EFC80B90021C4F2F0212046FEF778
:101DB00055FC48B147F65020C0F6000005B0BDE81C
:101DC000F04304F03DBF00BF0021C4F2343120468F
:101DD000FEF752FC30B90021C4F216312046FEF75E
:101DE00059FC68B90021CCF216312046FEF744FCBC
:101DF00080B90021CCF234312046FEF74BFC48B1CB
:101E000047F67220C0F6000005B0BDE8F04304F0CC
:101E100017BF00BFD9F824400021C4F2702120462A
:101E2000FEF738FC40B147F61D20C0F6000005B0B3
:101E3000BDE8F04304F004BF0021CCF2F0112046CD
:101E4000FEF7FEFB80B90021C4F2F0112046FEF738
:101E500005FC48B147F62E20C0F6000005B0BDE8ED
:101E6000F04304F0EDBE00BF0021CCF2702120460B
:101E7000FEF702FC40B947F63F20C0F6000005B06F
:101E8000BDE8F04304F0DCBE05B0BDE8F08300BF60
:101E90004F4E0D004F46460D000000006461746116
:101EA0003A252E31662C252E31662C252E31660DD5
:101EB0000A000000704700007047000070470000F3
:101EC000B0B582B0044600680168C368426901F099
:101ED0002F05202D03F0200506D12DB1204602B09C
:101EE000BDE8B04001F092B95FEA017C1EBF02F08C
:101EF000010E03F4907212EB0E0253D1226B012AF1
:101F000005D111F0100218BF13F0100236D10A06E5
:101F100022D513F080021FD094F8411021293FD11F
:101F2000A168B1F5805F03D12169002900F07082BA
:101F3000216A4A1C226209784160E18C01390A0455
:101F4000E1842DD1C16821F08001C160C16841F0F8
:101F50004001C16002B0B0BD490621D513F0400177
:101F60001ED0C16821F04001C1602021204684F8C4
:101F7000411002B0BDE8B04000F0FCBC002101916E
:101F8000016801914168019101994069400613D4AB
:101F9000A08DE18DE28D002A18BF884240F0BA8101
:101FA00002B0B0BDCA0718BF13F4807240F0B6800B
:101FB0004A0700F1B980BEE0E06B016849688AB267
:101FC000002AEDD0A38D9A42EAD2E18580692028CB
:101FD00000F09C80206850E8030F216820F4807096
:101FE00041E80302DAB1206850E8030F216820F4C9
:101FF000807041E8030292B1206850E8030F216825
:1020000020F4807041E803024AB1206850E8030FD1
:10201000216820F4807041E80302002ADAD12068A8
:1020200050E8050F216820F0010041E80502DAB10F
:10203000206850E8050F216820F0010041E8050202
:1020400092B1206850E8050F216820F0010041E8B6
:1020500005024AB1206850E8050F216820F0010010
:1020600041E80502002ADAD1206850E8050F21680E
:1020700020F0400041E80502DAB1206850E8050F81
:10208000216820F0400041E8050292B1206850E844
:10209000050F216820F0400041E805024AB12068A0
:1020A00050E8050F216820F0400041E80502002AB1
:1020B000DAD1202084F8420000202063206850E814
:1020C000030F216820F0100041E80302DAB1206814
:1020D00050E8030F216820F0100041E8030292B19C
:1020E000206850E8030F216820F0100041E8030247
:1020F0004AB1206850E8030F216820F0100041E841
:102100000302002ADAD1E06BFEF750FD0220606383
:10211000A08DE18D401A81B2204674E1626C42F0DC
:10212000010262644A0706D5BEF1000F03D0626C5B
:1021300042F0020262648A0706D5BEF1000F03D0A6
:10214000626C42F004026264BCF1000F09D545EAFA
:102150000E02B2FA82F2520903D1626C42F0080216
:102160006264626C002A3FF41BAF11F0200118BFBB
:10217000002D03D0204601F049F820684069616CC9
:1021800000F0400001F00801401800F0B58000BFE9
:10219000206850E8030F216820F4907041E80302A2
:1021A000BAB3206850E8030F216820F4907041E82A
:1021B000030272B3206850E8030F216820F4907086
:1021C00041E803022AB3206850E8030F216820F495
:1021D000907041E80302002ADAD11AE0206850E842
:1021E000050F216820F0010041E80502DAB12068FE
:1021F00050E8050F216820F0010041E8050292B186
:10220000206850E8050F216820F0010041E8050230
:102210004AB1206850E8050F216820F0010041E82C
:102220000502002ADAD1206B012824D1206850E869
:10223000030F216820F0100041E80302DAB12068A2
:1022400050E8030F216820F0100041E8030292B12A
:10225000206850E8030F216820F0100041E80302D5
:102260004AB1206850E8030F216820F0100041E8CF
:102270000302002ADAD1202084F8420000202063E3
:102280002068406940063FD5206850E8050F216866
:1022900020F0400041E80502DAB1206850E8050F5F
:1022A000216820F0400041E8050292B1206850E822
:1022B000050F216820F0400041E805024AB120687E
:1022C00050E8050F216820F0400041E80502002A8F
:1022D000DAD1E06BC0B143F20121C0F600014163E5
:1022E000FEF788FC00283FF45BAEE06B416B02B068
:1022F000BDE8B040084700BF2046FFF7DFFD0020E3
:10230000606402B0B0BD00BF204602B0BDE8B0407E
:10231000FFF7D4BD401A216851E8031F226821F459
:10232000907142E80313DBB1216851E8031F226872
:1023300021F4907142E8031393B1216851E8031F1F
:10234000226821F4907142E803134BB1216851E8EF
:10235000031F226821F4907142E80313002BDAD1A5
:10236000216851E8051F226821F0010142E80513A8
:10237000DBB1216851E8051F226821F0010142E824
:10238000051393B1216851E8051F226821F001016E
:1023900042E805134BB1216851E8051F226821F07E
:1023A000010142E80513002BDAD1202184F8421004
:1023B00000212163216851E8031F226821F01001E8
:1023C00042E80313DBB1216851E8031F226821F0C2
:1023D000100142E8031393B1216851E8031F2268FA
:1023E00021F0100142E803134BB1216851E8031FAB
:1023F000226821F0100142E80313002BDAD10222F7
:1024000081B22046626302B0BDE8B040FFF754BD20
:10241000216A31F8022B6FF35F22426021628CE562
:10242000002804BF0120704710B5044690F8410011
:1024300028B9002084F84000204600F063F82420EA
:1024400084F841002068D4E90212C36823F40053E1
:10245000C360036923F440531A430261D4E904239F
:102460001143C268194341F20C639A431143C1609E
:102470004169A26921F44071114343F60002C4F29C
:1024800001029042416103D0FEF7DAFE02E000BF94
:10249000FEF7EAFE6268192148439100B0FBF1F0B3
:1024A00048F21F51C5F2EB11A0FB01235A094FF668
:1024B0009C73C0F6FF7302FB0300322303EB001092
:1024C000A0FB0101F02303EA5113206803EB021281
:1024D000C1F3431111448160016921F4904101610C
:1024E000416921F02A014161C16841F40051C16094
:1024F00000202021606484F8411084F84210606359
:1025000010BD0000F0B585B0006844F20041C4F28F
:10251000000188424FF00001CDE90311CDE901111E
:1025200022D043F60001C4F20101884253D141F2A6
:102530001800C4F202000168252441F480410160C2
:1025400001684FF4806701F48041009100990168AF
:1025500041F004010160006800F004000090009860
:102560004FF4007019E000BF41F21800C4F20200FD
:102570004168262441F4003141604168082701F494
:10258000003100910099016841F004010160006888
:1025900000F004000090009804200190022040F612
:1025A000000502900320C4F2010501AE0490284604
:1025B0003146FEF78DFB0020CDE90200284631466A
:1025C0000197FEF785FB204600210022FEF71CFD47
:1025D0002046FEF705FD05B0F0BD000090F8423042
:1025E000202B1CBF0220704700294FF0010318BFA9
:1025F000002A01D11846704700230363816222211B
:102600008285C285436480F842100169006819B16F
:10261000C16841F48071C1604169002341F001014A
:102620004161C16841F02001C16018467047000057
:1026300040F2F401C2F20001884218BF704740F234
:10264000AA00C2F200000078303805284BD8DFE835
:1026500000F0030F1B27333F40F28000C2F200005E
:102660000021C0E90011C0E9021101613BE000BF97
:1026700040F28000C2F2000001210022C0E90012F5
:10268000C0E9022202612EE040F28000C2F20000A6
:1026900000210122C0E90012C0E90211016122E01B
:1026A00040F28000C2F2000000210122C0E90011C6
:1026B000C0E90221016116E040F28000C2F2000090
:1026C00000210122C0E90011C0E9021201610AE003
:1026D00040F28000C2F2000000210122C0E9001196
:1026E000C0E90211026140F2F40040F2AA01C2F214
:1026F0000000C2F200010122FFF770BF2DE9F04394
:1027000081B0044690F84100202840F0B18088460E
:1027100000294FF0010000F0D6801646002A00F094
:10272000D2800020606421201D4684F84100FEF71D
:10273000F1FBA684E684A1680646B1F5805F03D16B
:102740002069002800F0988047464FF00008E18C8F
:102750002068002900F0968005F101090BE000BF18
:1027600047B317F8011B4160E18C0139E184E18C2A
:10277000002900F0878001680906F1D4B9F1000F43
:102780000AD0EDB1FEF7C6FB801BA84218D820681E
:1027900001680906F6D5E3E701680906E0D4016897
:1027A00009065CBF01685FEA0161D9D401680906C6
:1027B000F2D5D5E738F8021B00276FF35F21D2E787
:1027C000206850E8030F216820F4D07041E803022C
:1027D000BAB3206850E8030F216820F4D07041E8B4
:1027E000030272B3206850E8030F216820F4D07010
:1027F00041E803022AB3206850E8030F216820F45F
:10280000D07041E80302002ADAD11AE0206850E8CB
:10281000050F216820F0010041E80502DAB12068C7
:1028200050E8050F216820F0010041E8050292B14F
:10283000206850E8050F216820F0010041E80502FA
:102840004AB1206850E8050F216820F0010041E8F6
:102850000502002ADAD1202084F8410084F84200E1
:10286000002084F84000032001B0BDE8F08300BFE1
:10287000022001B0BDE8F0830027E18C2068002928
:102880007FF46AAF0168490619D4FDB1691C0DD106
:102890000168490613D4016849065CBF01685FEA14
:1028A00041610CD401684906F2D508E0FEF732FB1D
:1028B000801BA8420AD8206800684006F6D5202070
:1028C00084F84100002001B0BDE8F083206850E8A2
:1028D000030F216820F4D07041E80302002A3ED0A3
:1028E000206850E8030F216820F4D07041E803020B
:1028F000AAB3206850E8030F216820F4D07041E8A3
:10290000030262B3206850E8030F216820F4D070FE
:1029100041E80302002AD9D121E000BF206850E835
:10292000050F216820F0010041E80502002A3FF46C
:1029300092AF206850E8050F216820F0010041E8BF
:102940000502002A3FF487AF206850E8050F216890
:1029500020F0010041E80502002A3FF47CAF206826
:1029600050E8050F216820F0010041E80502002A27
:10297000D4D170E770470000FEE7000010B584B0C6
:1029800041F21800C4F20200016840F6004441F030
:10299000080101600068C4F2010400F00800009022
:1029A00000984FF440700090032003901120019094
:1029B00069462046FEF78CF920464FF4007100224C
:1029C000FEF7A2FA20464FF480710122FEF79CFA2E
:1029D00020464FF400710122FEF796FA04B010BDB4
:1029E0002DE9F04F83B040F60045C4F20105019097
:1029F00028464FF480710122FEF786FA28464FF4EC
:102A00000071FEF773FA029028464FF4807100229D
:102A1000FEF77AFA28464FF480710122FEF774FA25
:102A200028464FF40071FEF761FA824628464FF4BB
:102A300080710022FEF768FA28464FF48071012267
:102A4000FEF762FA28464FF40071FEF74FFA83460C
:102A500028464FF480710022FEF756FA28464FF4BC
:102A600080710122FEF750FA28464FF40071FEF7FC
:102A70003DFA044628464FF480710022FEF744FADE
:102A800028464FF480710122FEF73EFA28464FF4A3
:102A90000071FEF72BFA064628464FF4807100229B
:102AA000FEF732FA28464FF480710122FEF72CFA25
:102AB00028464FF40071FEF719FA074628464FF4EE
:102AC00080710022FEF720FA28464FF4807101221F
:102AD000FEF71AFA28464FF40071FEF707FA80460F
:102AE00028464FF480710022FEF70EFA28464FF474
:102AF00080710122FEF708FA28464FF40071FEF7B4
:102B0000F5F9814628464FF480710022FEF7FCF962
:102B10000198C8B128464FF400710022FEF7F4F97D
:102B200028464FF480710122FEF7EEF928464FF453
:102B300080710022FEF7E8F928464FF40071012267
:102B4000FEF7E2F912E000BF28464FF400710122BF
:102B5000FEF7DAF928464FF480710122FEF7D4F926
:102B600028464FF480710022FEF7CEF90298002823
:102B700018BF0120BAF1000F18BF4FF0010A4AEA4E
:102B800040008000BBF1000F18BF4FF0010B40EA7E
:102B90004B00002C18BF012420448000002E18BFD9
:102BA000012640EA4600002F18BF01273844800064
:102BB000B8F1000F18BF4FF0010840EA4800B9F122
:102BC000000F18BF4FF001094844C0B203B0BDE880
:102BD000F08F0000B0B540F60044C4F20104054691
:102BE000C20920464FF40071FEF78EF920464FF4DB
:102BF00080710122FEF788F920464FF4807100228F
:102C0000FEF782F9C5F3801220464FF40071FEF7FB
:102C10007BF920464FF480710122FEF775F92046BA
:102C20004FF480710022FEF76FF9C5F34012204681
:102C30004FF40071FEF768F920464FF480710122CD
:102C4000FEF762F920464FF480710022FEF75CF92E
:102C5000C5F3001220464FF40071FEF755F92046E7
:102C60004FF480710122FEF74FF920464FF4807136
:102C70000022FEF749F9C5F3C00220464FF4007167
:102C8000FEF742F920464FF480710122FEF73CF92D
:102C900020464FF480710022FEF736F9C5F380021A
:102CA00020464FF40071FEF72FF920464FF4807153
:102CB0000122FEF729F920464FF480710022FEF729
:102CC00023F9C5F3400220464FF40071FEF71CF9CA
:102CD00020464FF480710122FEF716F920464FF48A
:102CE00080710022FEF710F905F0010220464FF432
:102CF0000071FEF709F920464FF480710122FEF7BA
:102D000003F920464FF480710022FEF7FDF82046BB
:102D10004FF400710122BDE8B040FEF7F5B80000A5
:102D200010B540F60044C4F2010420464FF400718F
:102D30000122FEF7E9F820464FF480710122FEF7E8
:102D4000E3F820464FF400710022FEF7DDF820463C
:102D50004FF480710022BDE81040FEF7D5B80000A6
:102D600010B540F60044C4F2010420464FF400714F
:102D70000022FEF7C9F820464FF480710122FEF7C9
:102D8000C3F820464FF400710122BDE81040FEF761
:102D9000BBB80000B0B540F60044C4F201042046C0
:102DA0004FF400710122FEF7AFF820464FF4807116
:102DB0000122FEF7A9F820464FF40071FEF796F8BD
:102DC0000546002820464FF480714FF0000218BFDE
:102DD0000125FEF799F82846B0BD000070B582B015
:102DE00014460D4606460DF1020368203B210622DB
:102DF00000F096F810B102B070BD00BFBDF802102F
:102E0000BDF8042009BA090C318011BABDF80620BA
:102E1000090C298011BA090C218002B070BD000094
:102E200070B582B014460D4606460DF102036820C7
:102E30004321062200F074F810B102B070BD00BF4B
:102E4000BDF80210BDF8042009BA090C318011BA8E
:102E5000BDF80620090C298011BA090C218002B0A6
:102E600070BD000010B5FFF789FD6B20802100F0D8
:102E70008FF86420FDF718FF6B20002100F088F820
:102E80001B20182100F084F81C20002100F080F89D
:102E90001920132100F07CF81A20042100F078F8A2
:102EA0003820002100F074F86A20002100F070F84A
:102EB0002320002100F06CF83720802100F068F812
:102EC000FFF72EFFD020FFF785FEFFF763FF752089
:102ED000FFF780FEFFF75EFFFFF722FFD120FFF72D
:102EE00079FEFFF757FF0020FFF77AFD0446FFF752
:102EF00037FF682C1CBF012010BD6B20012100F0A2
:102F000047F86C200021002400F042F8192013211A
:102F100000F03EF81A20042100F03AF8204610BDD7
:102F2000F0B581B01C4615460E460746FFF7F8FE81
:102F30007F00F8B2FFF74EFEFFF72CFF30B10124FF
:102F4000FFF70EFF204601B0F0BD00BF3046FFF78F
:102F500041FEFFF71FFFFFF7E3FE47F00100C0B29D
:102F6000FFF738FEFFF716FF06E000BF0020FFF76F
:102F700037FD04F8010B013DE8B20128F6D008B195
:102F80000120F4E70024FFF7EBFE204601B0F0BD7E
:102F9000B0B50C460546FFF7C3FED020FFF71AFE7A
:102FA000FFF7F8FE20B1FFF7DBFE0120B0BD00BF48
:102FB0002846FFF70FFEFFF7EDFE2046FFF70AFE5B
:102FC000FFF7E8FE0446002818BF0124FFF7C8FEFB
:102FD0002046B0BDF0B581B01C4615460E460746EA
:102FE000FFF79EFE7800C0B2FFF7F4FDFFF7D2FEB8
:102FF00030B10124FFF7B4FE204601B0F0BD00BFA0
:103000003046FFF7E7FDFFF7C5FE55B12078FFF723
:10301000E1FDFFF7BFFE0028EBD1013D04F1010403
:10302000F4D10024FFF79CFE204601B0F0BD000063
:103030002DE9F04184B041F21800C4F202000168A9
:1030400040F6004441F0100101600168C4F201043F
:1030500001F0100100910099016804F5806541F0CC
:10306000200101600168002201F020010091009917
:1030700001684FF4005741F0040101600168002627
:1030800001F0040100910099016841F0080101601C
:1030900000684FF4005100F00800009000982846A6
:1030A000FDF732FF20464FF4407100224FF4407884
:1030B000FDF72AFF00970127CDE9017602206E4631
:1030C000039028463146FDF703FE1120CDE90107A4
:1030D0000320039020463146CDF80080FDF7F8FD2F
:1030E00004B0BDE8F081000080B586B040F2AC00CD
:1030F00042F600420021C2F20000C4F2010247235E
:1031000042F20F7C4FF0800E0591CDE90311CDE91D
:103110000011C0E90023C0E9021CC0E90411C0F895
:1031200018E0FEF7E7FA002818BFFDF739FD4FF465
:103130008050029040F2AC00C2F2000002A9FEF7FB
:10314000ABFB002818BFFDF72BFD40F2AC00C2F22C
:1031500000006946FEF790FA002818BFFDF720FD31
:1031600006B080BD80B540F2F40043F60001C2F223
:103170000000C4F2010100234FF00C0C4FF4E132C7
:1031800080E80E00C0E90333C0E905C3C361FFF75F
:1031900047F9002808BF80BDBDE88040FDF700BDAD
:1031A00080B540F23C1044F20041C2F20000C4F28B
:1031B000000100234FF00C0C4FF4E13280E80E00C8
:1031C000C0E90333C0E905C3C361FFF729F900284B
:1031D00008BF80BDBDE88040FDF7E2BCFEE700000F
:1031E000FEE700007047000070470000FDF798BE42
:1031F0007047000040F2AC00C2F20000FEF71CBCB9
:10320000406A0021C185C184FEF758BE81B090F8A4
:103210004210222921D183680246B3F5805F09D18B
:1032200052F8281F52F8183C002B63D003685B68E3
:103230000AE000BF52F8281F13B90369002BF5D02C
:1032400003685B6803F07F030B7011680131116044
:10325000C18D01390A04C18502D001B0704700BF99
:103260000168CA6822F02002CA60CA6822F480722B
:10327000CA604A6922F001024A61202180F84210A6
:1032800000214163026B012A3CD10163016851E8CE
:10329000031F026821F0100142E80313DBB101684B
:1032A00051E8031F026821F0100142E8031393B1B3
:1032B000016851E8031F026821F0100142E803137E
:1032C0004BB1016851E8031F026821F0100142E888
:1032D0000313002BDAD101680A68D20606D5002252
:1032E00000920A680092496800910099818D01B0AE
:1032F000FEF7E2BD026852686FF35F2221F8022BED
:103300008162A5E701B0FFF793B9000040F2F40035
:10331000C2F20000FEF7D4BD40F23C10C2F2000041
:10332000FEF7CEBDFEE700002DE9F04186B0044671
:103330004CF60220C0F6E3100DF10205CDF80200B4
:10334000682004212A4602F0BDFBA3206FF03F0154
:103350008DF8020014F0400608BF6FF05C016FF0BA
:1033600037026FF03D0308BF6FF05C0208BF6FF0DB
:103370005C038DF803106FF03B018DF804208DF88D
:10338000053014F4C07708BF6FF05C016FF03302B2
:103390006FF0390308BF6FF05C0208BF6FF05C0389
:1033A0008DF806104AF2A3318DF80720ADF8091008
:1033B0008DF80B0040F6A7200A212A468DF8083028
:1033C00002F080FB202014F0030808BF6FF02700F4
:1033D0008DF8020040F6B62001212A4602F072FB69
:1033E000A0060BD4C720059048F6B000CCF2C3501D
:1033F00004904AF6B820CAF6AA200AE05D2005909B
:1034000049F6B400C3F20D5004904AF6B820C8F64D
:10341000B350039003AA4FF49760092102F052FBC6
:103420002FB36FF04D016FF0740214F4807008BF79
:103430006FF04F0108BF6FF07F026FF049036FF02C
:10344000640508BF6FF04B03002808BF6FF06F05DD
:103450008DF802108DF803200DF1020240F6A22033
:1034600004218DF804308DF8055002F02BFBE007A5
:1034700008D1D8208DF802000DF102024FF40B6044
:10348000012150E0F8208DF802000DF102024FF406
:103490000B60012102F016FB0720FA2100F006FB69
:1034A0003F208DF80C0003AA4FF4A470012102F014
:1034B00009FB00208DF80C0003AA40F24F100121F7
:1034C00002F000FB4FF4A050ADF80C0003AA4FF43B
:1034D000EF70022102F0F6FA4FF4C840ADF80C008C
:1034E00003AA4FF4ED70022102F0ECFA48F60060F6
:1034F000C9F2F900039003AA4FF4AE70042102F060
:10350000E1FA4FF40060ADF80C0003AA4FF4AD707F
:10351000022102F0D7FA4FF40070ADF80C0003AAB4
:103520004FF4AC70022102F0CDFAA0076FF0260034
:1035300058BF6FF027008DF802000DF1020240F233
:103540003D70012102F0BEFA600752BF4FF08B3090
:103550004CF2C020CCF2C460039003AA40F698203D
:10356000042102F0AFFA01F0B1FAE00652BF4FF0C9
:10357000A33042F62000C3F63000039003AA40F6C1
:103580009E20042102F09EFA01F0A0FA40F2940578
:1035900044F00800C2F20005A88001F097FA002E5E
:1035A00018BF0626002F18BF063614F0140F18BFD8
:1035B00046F01006B8F1000F18BF043600202E7038
:1035C00006B0BDE8F081000046F60061C0F60001DB
:1035D00040F6F6304FF48062C82301F065B8000071
:1035E0002DE9F04F89B01446DDE912A20F46002103
:1035F00040F29409AAF80010C2F2000999F80010EC
:103600000DF1040B8046084659461E4601F0FEF9AE
:1036100020B14FF0FF3009B0BDE8F08FB9F804C019
:103620001CF0140F52D09DF80520B6469DF80410EA
:10363000BDF8066012049DF8095042EA016132BAF1
:103640009DF8083041EA1242BDF80A6022602A045F
:1036500042EA036233BA42EA134363609DF80D30D5
:103660009DF80C60BDF80E501B0443EA06632EBAA9
:1036700043EA16461214A6609DF8116009145243DD
:103680009DF8105001FB012136041A1446EA056624
:1036900002FB0211321402FB0211BDF812006FF09E
:1036A000885211444FF6FE7200BACFF6FF5246EA36
:1036B00010409142E06071D801F008FA0020AAF8A9
:1036C00000004FF0FF3009B0BDE8F08F00215FEA45
:1036D0004C6026D541F001021BF801001BF80220C6
:1036E00041F0030342EA002041F002021BF80220ED
:1036F0001BF80330388043EA022041F0040241F015
:1037000005031BF802201BF80330788043EA0220EF
:10371000B880BAF8000041F0060140F00800AAF8AD
:1037200000001CF4C07F18D03BF801000BEB010235
:1037300000BA5388000CA8F8000018BA9288000C50
:10374000A8F8020010BA000CA8F80400BAF80000AB
:10375000063140F07000AAF800005FEA8C7016D0C5
:103760000BEB01056878EC78C10709D0D9F808207F
:1037700032B104F00700411CC4F3C20090476878DE
:10378000000704D5D9F80C1009B1A00988473046C4
:1037900000F0A0FC002009B0BDE8F08FBAF80000EE
:1037A000102140F480707646AAF800005FEA4C6071
:1037B00090D4B6E710B584B004460DF1020000F0D5
:1037C0006DFE40F2A400C2F200000088BDF802C005
:1037D00000F00302430754F822204FF00C0348BFC7
:1037E000524203EA50038106E358C0F3811148BFF7
:1037F0005B4254F82110C00548BF49424FEACC3023
:1038000080FB02C480FB03E280FB01014FEA9C7352
:10381000800F43EA840C4FEA9E7340EA810EA00DAC
:103820008DF80400A00B8DF80500A0098DF80600A6
:10383000900D8DF80800900B8DF8090090098DF817
:103840000A00880D8DF80C00880B8DF80D00880992
:1038500043EA82038DF80E0001AA4FF425700C2173
:103860008DF807C08DF80B308DF80FE002F02AF9C3
:1038700004B010BD10B586B004464AF6BB70CDF654
:10388000DF7005904FF2AA10CDF6DF7004904FF272
:10389000FE20CCF2AB40C82C039017D8E0B2C82170
:1038A000B1FBF0F0002101388DF804108DF805000F
:1038B00001AA40F21620022102F004F930B903AA4D
:1038C00040F6C1200C2102F0FDF818B14FF0FF3096
:1038D00006B010BD40F2A800C2F200000480002033
:1038E00006B010BDF0B581B040F2A401C2F20001F3
:1038F0000E880C2306F003014EF2093450F8211013
:1039000003EA5603C0F2CA24720748BF4942C758A7
:10391000C6F3811381FB041250F82350F0054FEADF
:1039200091704FEA925148BF6D428DF80010910B93
:1039300040EA82008DF8011091098DF802108DF88F
:1039400003006A464FF47470042102F0BBF8E0B93A
:10395000B00648BF7F42A7FB0401FA1702FB04111F
:10396000800F8A0D40EA81008DF800208A0B8909BA
:103970008DF801208DF802108DF803006A464FF48F
:103980007570042102F09EF820B14FF0FF3001B0B5
:10399000F0BD00BF85FB0401800F40EA8100010EED
:1039A0008DF80010010C8DF80110010A8DF802103D
:1039B0008DF803006A464FF47670042102F082F815
:1039C00001B0F0BDB0B582B0054646F6D351C0F6A1
:1039D0000001C5F3C10300F00300CC5C0A5C8DF864
:1039E000054046F6D0548DF80420C5F38112C0F688
:1039F0000004895C205C8DF806108DF80000E05C06
:103A0000A15C8DF801008DF8021001AA40F2264059
:103A1000032102F057F850BB6A4640F22A400321C6
:103A200002F050F818BB45F23660C0F27600019003
:103A300044F22660C0F26600690700901CD4A80614
:103A400022D4E80505D577208DF8060067208DF88B
:103A5000020001AA4FF48860032102F033F830B964
:103A60006A4640F23140032102F02CF8B0B14FF029
:103A7000FF3002B0B0BD00BF37208DF80400272012
:103A80008DF80000A806DCD557208DF805004720EA
:103A90008DF80100E805D6D4DBE700BF40F2A400B2
:103AA000C2F200000580002002B0B0BDF0B583B0C6
:103AB0000446B1F5C86F4FF0FF3055D814F0070237
:103AC00052D00846FCF70BFE0021C4F24831FCF747
:103AD000F1FB05460DF1070000F0C2FC9DF8070060
:103AE00002384FEA7002072A4FF0FF303CD8002618
:103AF000C4F240664FF08D41DFE802F01504360A4B
:103B0000363636100026C4F2C0564FF08C410AE01B
:103B10000026C4F240564FF08B4104E00026C4F268
:103B2000C0464FF08A412846FCF792FB07462846DC
:103B30003146FCF78DFBFCF7E8FD06463846FCF7FE
:103B4000E4FD010A8DF808108DF80900300A02A979
:103B50008D1C8DF80A00E0078DF80B6006D1A007D8
:103B600014D4600722D4002003B0F0BD02AA4FF4A1
:103B7000EA70022101F0A6FF38BB4FF492700221D7
:103B80002A4601F09FFF00BBE9E700BF02AA4FF4FD
:103B9000EC70022101F096FFB8B94FF49470022145
:103BA0002A4601F08FFF80B9DBE700BF02AA4FF47D
:103BB000EE70022101F086FF38B94FF496700221B1
:103BC0002A4601F07FFF0028CDD04FF0FF3003B030
:103BD000F0BD000080B582B0019040F2F400C2F266
:103BE000000001A901224FF0FF33FEF787FD019885
:103BF00002B080BD2DE9F04F85B040F210070546B8
:103C00000120C2F200070C46ADF80800D7E9031006
:103C100016460078897C02AB0222FFF7DBF9002808
:103C200040F0C280C820FDF73FF800208DF8080062
:103C3000D7E9031002AB0078C97B0122FFF7CAF96C
:103C4000002840F0B180D7E9031002AB0078497931
:103C50000122FFF7BFF9002840F0A680D7E9031042
:103C600002AB0078897C0122FFF7B4F9002840F00C
:103C70009B80D7E9031002AB0078C97D0122FFF7D2
:103C8000A9F9002840F09080D7E9031002AB007832
:103C900009790122FFF79EF9002840F085800C2069
:103CA0008DF80800D7E9031002AB007809790122EA
:103CB000FFF790F9002877D10F20FCF7F5FF786B1C
:103CC000F968407A3A698DF808001078897802AB73
:103CD0000122FFF77FF9002866D1786BF968007A36
:103CE0003A698DF808001078497802AB0122FFF795
:103CF00071F9002858D1786BD7E90312807A002E29
:103D000018BF40F0E0008DF808001078897902AB08
:103D10000122FFF75FF9002846D12EB1786BC07AF7
:103D200060F01F0001E000BF18208DF80800D7E9FF
:103D3000031002AB0078C9790122FFF74BF998BB59
:103D400016B1C820FCF7B0FF40208DF80800D7E975
:103D5000031002AB007809790122FFF73BF918BB89
:103D600078208DF80800D7E9031002AB0078497974
:103D70000122FFF72FF9B8B93220FCF795FF002098
:103D80008DF80800D7E9031002AB007849790122C9
:103D9000FFF720F940B9D7E9031002AB0078897A20
:103DA0000222FFF7BDF828B14FF0FF37384605B0C3
:103DB000BDE8F08FBDF808004AF6AB2100BA000C50
:103DC0004843C0F3C7420021002AC5E90011A96099
:103DD000C4E900110192A16044D0C00C00260DF18D
:103DE00008095FFA80F8D7E903100C220078C97A35
:103DF0004B46FFF795F80028D6D1BDF80800BDF86E
:103E00000C20BDF80A1090FA80FC92FA82FED4E9E8
:103E10000030A26809BA00EB214002EB2E4103EB0F
:103E20002C43A160BDF81010C4E90030BDF8122089
:103E3000BDF80E0091FA81FEA96892FA82FCD5E9DC
:103E40000032013600BA01EB2C4AF1B203EB2040FC
:103E500002EB2E4B4145C5E9000BC5F808A0C2D3C3
:103E600004E000BFD5E9000BD5F808A0C11709048C
:103E700041EA10410004832200230027FCF752F995
:103E8000DDF8048000234246FCF74CF928604FEA35
:103E9000EB70000440EA1B414FEA0B4083220023F1
:103EA000FCF740F942460023FCF73CF968604FEA12
:103EB000EA70000440EA1A414FEA0A4083220023D4
:103EC000FCF730F942460023FCF72CF9A860D4E94E
:103ED0000006A568C117490141EAD0614001424688
:103EE0000023FCF71FF92060F017400140EAD6617B
:103EF000700142460023FCF715F96060E8174001A5
:103F000040EAD561680142460023FCF70BF94FF403
:103F100080310028C4BF0021CFF6FF710844A060A3
:103F2000384605B0BDE8F08F90F9001000290DDD8E
:103F3000002190F90320002A10DD002290F90630BC
:103F4000002B13DD002011430843704718D490F96B
:103F5000011000291EDD0121EBE700BF12D490F90A
:103F60000420002A1EDD0822E8E700BF0CD490F9E7
:103F70000730002B1EDD402011430843704700BF6F
:103F80000421D6E72022D9E74FF48070114308437B
:103F9000704700BF18D490F9021000291EDD0221DD
:103FA000C7E700BF12D490F90520002A1CDD1022BB
:103FB000C4E700BF0CD490F9080000281ADD802067
:103FC00011430843704700BF0521B2E72822B5E737
:103FD0004FF4A07011430843704700BF4FF0060133
:103FE00008BF0721A5E700BF4FF0300208BF382205
:103FF000A4E700BF4FF4C07008BF4FF4E070114356
:104000000843704790B0FCF799FF00240120CDE9E8
:104010000B44CDE9094406900A904FF4E0104FF4A8
:10402000803102250F9006A8CDE90714CDE90D5186
:10403000FDF72EF920B1EFF3108072B6FEE700BF56
:104040000F20CDE901054FF48060CDE9040401A8FB
:1040500002210394FDF714F820B1EFF3108072B63B
:10406000FEE700BFFEF7E4FFFFF73EF8FFF77AF840
:10407000FFF796F8FEF7F6FE00F074F910A002F0D4
:10408000DFFD40F2AC00C2F20000FDF7CDFB40F2D4
:10409000F40040F2AA01C2F20000C2F200010122C3
:1040A000FEF79CFA41F20004C4F201044FF4FA70E6
:1040B000FCF7FAFD20464FF40051FCF71DFFF5E731
:1040C000E5889DE5A78BE58C96E68890E58A9FEFCD
:1040D000BC810D0070470000F0B581B040F21005C2
:1040E000C2F2000595F8301021B10024204601B03D
:1040F000F0BD00BFA97D69B300F0FE0739402E7FF7
:10410000CC1B95F8200018BF4FF0FF34002F297703
:1041100008BF002824D0687F78B901208DF80200FC
:10412000D5E903100DF102030078C97B0122FEF7E7
:1041300051FF10B99DF802006877002FD6D000F02B
:10414000C5FC00281CBF2E774FF0FF34204601B07D
:10415000F0BD00BF4FF0FF34204601B0F0BD00BFFE
:1041600000208DF80300D5E903100DF1030300785A
:10417000C97B0122FEF72EFF0028B7D19DF803006E
:104180006877204601B0F0BD2DE9F04F8FB00546AD
:104190000DF12A0014460E460DF1290700900DF18D
:1041A00032000BA906AA0EAB0197FFF719FA18B156
:1041B00001200FB0BDE8F08FBDF82A00C00503D480
:1041C00002200FB0BDE8F08F06980594079C049676
:1041D000DDE90867FCF77AFA4FF04251FCF738F84E
:1041E00080462046FCF772FA4FF04251FCF730F857
:1041F00083463046FCF76AFA4FF04251FCF728F844
:1042000004463846FCF762FA4FF04251FCF720F8BA
:10421000814658464FF04041FCF71AF88246404626
:104220004146CDF80C80FBF7BBFF21468046FCF7EA
:104230000FF8064650464946FCF70AF83146FBF7A8
:10424000AFFFFCF77BFA02F0E5F94AF26663C4F2CD
:104250004C034FF06632FCF712F9FCF782FA286043
:1042600020462146FBF79CFF064640465946FBF791
:10427000EFFF054630464946FBF7EAFF2946FBF7C4
:104280008FFFFCF75BFA05460F4620463146FBF7E9
:10429000DFFF064650465946FBF7DAFF3146FBF78B
:1042A000D1FF4FF07E51FBF77BFFFCF747FA024648
:1042B0000B462846394602F0F5FB4AF26668C4F21E
:1042C0004C084FF066324346FCF7D9F8FCF749FA40
:1042D0000499039F086038464946FBF7B9FF054635
:1042E00058462146FBF7B4FF2946FBF759FF014624
:1042F000FBF756FFFCF722FA05468A465846594610
:10430000FBF7A6FF064638463946FBF7A1FF3146C4
:10431000FBF746FF064620462146FBF799FF01467C
:104320003046FBF78FFF044648464946FBF790FFAF
:1043300001462046FBF786FFFCF700FA02460B46D3
:104340002846514602F0AEFB4FF066324346FCF77A
:1043500096F8FCF706FA0599086000200FB0BDE852
:10436000F08F000070B582B0FEF708FB00F0B8F8DF
:1043700010B10A2002B070BD782001F02DFB0006BC
:1043800002D0012002B070BD40F21004C2F200045D
:1043900094F8300040B1642001F07AFA000621D090
:1043A000032002B070BD00BFA07D98B3617F257F60
:1043B00000F07806267779B901208DF80700D4E956
:1043C00003100DF107030078C97B0122FEF702FEFE
:1043D00010B99DF80700607700F078FBC0B1257731
:1043E00018E000BFFFF7F0F8000603D0042002B089
:1043F00070BD00BF40F21000C2F20000FFF794FD54
:10440000FFF7E0FA000609D0052002B070BD00BF3A
:10441000782EC0D0022002B070BD00BF40F27310F1
:10442000FEF782FF000603D0062002B070BD00BF79
:104430006420FFF71FFA000602D0072002B070BD0B
:1044400001F072FB10B1082002B070BD012001F034
:1044500061F9C0B2002818BF092002B070BD000089
:1044600040F21001C2F200014A7D032A84BF4FF0DE
:10447000FF30704740F20243D200C1F20803D3403C
:104480000370C97F002904BF0020704740F6040173
:10449000C2F21001D14001700020704740F21002BA
:1044A000C2F20002517D032984BF4FF0FF307047F4
:1044B00007A3D27F33F81130002A038004BF002005
:1044C000704705A232F8111001800020704700BF2C
:1044D00000409C1F001000080020CE0F00080004C0
:1044E00010B582B040F210048020C2F200048DF8B2
:1044F0000100D4E903100DF101030078897C012249
:10450000FEF768FDC8B96420FCF7CEFB00208DF8EB
:104510000100D4E903100DF101030078897C012228
:10452000FEF758FD48B9D4E903100DF101030078F6
:10453000897D0622FEF7F4FC20B14FF0FF342046BF
:1045400002B010BD9DF806209DF802009DF80410F1
:10455000042303EA820261F3410200F00100111812
:1045600006D001292DD0022920D100202AE000BF49
:10457000D4E903100DF101030078C9780122FEF798
:10458000CFFC0028D9D19DF8010000F00F000428CD
:1045900014D00028E9D147F68320C0F6000002F0CD
:1045A0004FFB4FF0FF34204602B010BD2CA001F0AD
:1045B00035FB4FF0FF34204602B010BD32A002F0B0
:1045C0003FFB0120E0774FF6FF706083FF202077EC
:1045D000A0774FF0FF3060610020C4E90800A062BE
:1045E000A085C4F82F0084F8330018208DF8070048
:1045F000D4E90310012200788979227684F82E20EC
:104600000DF107030122FEF7E5FC002895D19DF886
:104610000700C0082075022000F0B6FF00288CD1EA
:104620002A2001F0E7F800287FF487AF322001F05C
:104630002FF900287FF481AF0020FFF74DFD0028FF
:104640007FF47BAF002000F0EDFF00287FF475AF12
:104650000020002401F0C0F9204602B010BD00BFC8
:10466000556E737570706F7274656420736F6674C5
:10467000776172652070726F6475637420726576FD
:104680002025642E0A00000048616C662073656E68
:104690007369746976697479207061727420666FC9
:1046A000756E642E000000002DE9F04F8BB00446BB
:1046B00000294FF0FF3000F0928040F21009C2F262
:1046C0000009884699F83110002940F08880002CB4
:1046D000CDE9013268D04FF0000ACDE903481FFA56
:1046E0008AF6A4EB060B99F81600BBF1100FA8BFD1
:1046F0004FF0100B002865D0D9F810005FFA8AF14E
:104700001FFA8BF342895F189AFA8AF197424FEAAF
:1047100011410593ADF82A1054D8D9F80C1000783F
:10472000097E02220DF12A03FEF754FC002849D12C
:10473000D9E9031008EB06040078497D5FFA8BF88D
:10474000424623464D46FEF745FCD8BBA87DC8B37C
:1047500028692B464289310A97428DF82A108DF834
:104760002BA02FD8D9680078097E02220DF12A03E8
:10477000FEF730FC30BBD9E903100DF11A050078C3
:10478000497D42462B46FEF7CBFBD8B9059A204619
:104790002946FBF7F8FC28BBDA44039C1FFA8AF091
:1047A000DDF81080A0429AD302980DF12A0340BA96
:1047B000ADF82A00D9E9031002220078897EFEF7BD
:1047C00009FC28B14FF0FF300BB0BDE8F08F00BFFF
:1047D000012089F831000198A9F8320000200BB0BF
:1047E000BDE8F08F6FF001000BB0BDE8F08F000066
:1047F00070B584B0282800F2E08040F2100504462D
:104800000028C2F2000543D095F82F0001281FD0E0
:10481000A87F95F82E103222002808BF30228DF88C
:104820000A2039B16FF04D01002808BF6FF04F0129
:104830008DF80A10D5E903100DF10A030078097DFF
:1048400001220126FEF7C6FB002808BF85F82F606D
:104850002020012C8DF8070052D1A87D00218DF871
:10486000081090B1E87D062106288DF80B100CD0B9
:10487000D5E903100DF10B03007889780122FEF7CA
:10488000A9FB10B99DF80B00E875072089E000BF6F
:1048900095F82F0000B3A87F95F82E100246002847
:1048A00018BF012252008DF8092039B16FF07D0147
:1048B000002808BF6FF07F018DF80910D5E90310BB
:1048C0000DF109030078097D0122FEF783FB002822
:1048D00004BF002085F82F004FF4E060ADF807001A
:1048E000D5E903100DF107030078897C0222FEF759
:1048F00071FB002861D1002085F8200004B070BD54
:10490000052C19D8A87D01218DF8081088B1E87D03
:10491000062106288DF80C100BD0D5E9031003AB47
:10492000007889780122FEF755FB10B99DF80C003C
:10493000E875472035E000BF142C19D8A87D022166
:104940008DF8081090B1E87D052105288DF80D102F
:104950000CD0D5E903100DF10D0300788978012200
:10496000FEF738FB10B99DF80D00E875872018E0B8
:10497000A87D03218DF8081090B1E87D042104285A
:104980008DF80E100CD0D5E903100DF10E03007850
:1049900089780122FEF71EFB10B99DF80E00E8751C
:1049A000C7208DF80800D5E903100DF10703007842
:1049B000897C0222FEF70EFB20B14FF0FF3004B0DD
:1049C00070BD00BF95F830100820A87500200029A0
:1049D0004FF00101287685F8201001D004B070BD99
:1049E000697F287779B901208DF80F00D5E9031088
:1049F0000DF10F030078C97B0122FEF7EBFA10B925
:104A00009DF80F006877002004B070BD2DE9F041DB
:104A100082B040F21007C2F200070E4697F830103D
:104A2000054600294FF0FF3044D0B97D002941D020
:104A3000D7E9031014460078897A0DF106030222A3
:104A4000FEF76EFA20B14FF0FF3002B0BDE8F08102
:104A5000BDF8061008BAB5EB104F07D9002020703A
:104A60004FF0FF3002B0BDE8F08100BF386991FA25
:104A700091F84288B8EB520F0ED9F9680078497C5A
:104A80000DF106030122FEF74BFA0028DBD19DF859
:104A90000600C00612D43869F9680078C97AEAB20B
:104AA0003346FEF73DFA0028CDD1B8FBF5F00138CA
:104AB0002070002002B0BDE8F08100BF00F006F8D1
:104AC0006FF0010002B0BDE8F081000010B582B0C7
:104AD00040F21004C2F20004A07D00B300208DF863
:104AE0000700D4E903100DF107030078C97B012208
:104AF000FEF770FA98B9D4E903100DF107030078B6
:104B000049790122FEF766FA48B9D4E903100DF19C
:104B10000703007809790122FEF75CFA20B14FF013
:104B2000FF3002B010BD00BF94F83000002845D01F
:104B30000C208DF80700D4E903100DF1070300786D
:104B400009790122FEF746FA0028E8D13220FCF765
:104B5000ABF8A07D0DF10703C0076FF01F0008BF81
:104B60006FF03F008DF80700D4E9031001220078B0
:104B70000979FEF72FFA0028D1D1607F0DF10703E4
:104B8000002818BF012040008DF80700D4E9031069
:104B900001220078C97BFEF71DFA0028BFD1002052
:104BA0008DF80700D4E903100DF107030078497967
:104BB0000122FEF70FFA0028B1D145E004208DF85C
:104BC0000700D4E903100DF10703007809790122E9
:104BD000FEF700FA0028A2D1A07DA17FC0074FF008
:104BE000600008BF4020002918BF40208DF8070052
:104BF000D4E903100DF10703007809790122FEF7CB
:104C0000E9F900288BD13220FCF74EF8607F0DF1D6
:104C10000703002818BF01208DF80700D4E903100E
:104C200001220078C97BFEF7D5F900287FF477AF21
:104C3000D4E9031004F11C03007849790122FEF73E
:104C4000C9F900287FF46BAF002002B010BD00004E
:104C50002DE9F04F93B040F2100AC2F2000A9AF820
:104C600030408946054614B1002000F053FD9AF803
:104C7000140003280CD8FA22DFE800F014021236E0
:104C80004FF4FA729AF815000B9203280FD932E00C
:104C900000229AF815000B92032808D92BE000BFD8
:104CA0004FF47A729AF815000B92032823D80FF666
:104CB000C8029AF81F3002EB80020FF6AC01002BFD
:104CC00008BF01EB800210680A909AF817000628C6
:104CD00017D900200990002007900020069000209E
:104CE0000590002028E000BF4FF4FA629AF8150002
:104CF0000B920328DBD900200A909AF817000628A7
:104D0000E7D800F07F00411EB1FA81F1490909910D
:104D10000621C14001F0010107910E21C14001F0BF
:104D2000010106911E21C14001F0010105913E21C2
:104D300021FA00F000F001000490BAF81A809AF805
:104D400016709AF81C60284649460022FEF752FF6A
:104D500048B12846494600224FF0000BFEF74AFFB3
:104D6000002840F04C830FA80CA901220895FEF7FB
:104D700041FF48B10FA80CA90122FEF73BFF18B173
:104D80004FF0000B3BE300BFDAF8100012AB0078E5
:104D90000D2104220397CDE90164FEF7C1F8CDF897
:104DA000008058B3D9F800000C99401A48BF40421F
:104DB000FBF78CFC4FF05E51FBF74AFA044628469D
:104DC0000021FBF775FC002846D120462946FBF759
:104DD00071FA0021CBF68071FBF7E2F945F6294123
:104DE00020F00040C3F60F61FBF72AFC00280CBF3F
:104DF0004FF001084FF0000842E000BF9DF8480066
:104E00009DF84B609DF849201C259DF84A3005EA25
:104E1000D000C6F30111091805EAD200C6F38102D9
:104E200000EB020705EAD30B06F0030400F0D6807E
:104E3000B1F1010800F0E68018F00302A1F10200D0
:104E400000F0EA80012A40F0F1804FF6AD75C3F61C
:104E5000B3658046F9E000BF49F69A11C3F699613F
:104E60002046FBF7FBFB43F233310546C3F6737173
:104E70002046FBF70FFC55EA000818BF4FF0010869
:104E8000D9F804000D99401A48BF4042FBF71EFCB8
:104E90004FF05E51FBF7DCF9054630460021FBF789
:104EA00007FCA8B928463146FBF704FA0021CBF6E7
:104EB0008071FBF775F945F6294120F00040C3F6F3
:104EC0000F61FBF7BDFB002808BF08F1020815E0E1
:104ED00043F23331C3F67371284608F10204FBF73D
:104EE000D9FB49F69A110028C3F69961284618BFE4
:104EF000A046FBF7B3FB002818BFA046D9F808006E
:104F00000E99401A48BF4042FBF7E0FB4FF05E515C
:104F1000FBF79EF9044638460021FBF7C9FBA8B908
:104F200020463946FBF7C6F90021CBF68071FBF726
:104F300037F945F6294120F00040C3F60F61FBF731
:104F40007FFB002808BF08F1040815E043F2333165
:104F5000C3F67371204608F10405FBF79BFB49F685
:104F60009A110028C3F69961204618BFA846FBF79E
:104F700075FB002818BFA846DAF81000039F0078D8
:104F8000089C12AB0D210322FDF7CAFF10B10726C2
:104F900029E200BF20680F999DF84820401A48BFB9
:104FA00040429DF849709DF84A9002F01F05FBF7BA
:104FB0008DFB4FF05E51FBF74BF9044685B16E1E39
:104FC00026D016F00301A5F102002BD0012977D1DC
:104FD00043F23331C4F2D11106467FE000254EE0A2
:104FE0000021C4F220112046FBF738FB00210546C2
:104FF000C4F2D2212046FBF74DFB55EA000618BF4C
:10500000012696E041F27B45C3F6AE6537E000BF6E
:105010000021C4F2C81178E041F27B45C3F6AE65C9
:1050200013E000BF0021C4F2C81157E047F25E252B
:10503000A1F10408C3F6C065022A08BFA1F1030864
:1050400004BF41F66365C3F6BA65032817D345F676
:105050001D26C3F6847600BF28463146FBF7F8F8D4
:105060003146FBF7F5F83146FBF7F2F83146FBF72E
:10507000EFF8A8F104085FEA08610546ECD10BEBF4
:1050800004087FB17C1E0FD014F00301A7F10200C9
:1050900010D0012940F088804FF6AD76C3F6B36694
:1050A00004468EE00026A4E041F27B46C3F6AE66DD
:1050B0009FE000BF41F27B46C3F6AE6681E000BFD1
:1050C00002294EF29A31A5F10406C4F2E41108BF98
:1050D000EE1E04BF4DF2BD21C4F2DA11032814D331
:1050E0004EF25435C3F6857508462946FBF7B0F8ED
:1050F0002946FBF7ADF82946FBF7AAF82946FBF746
:10510000A7F8043E31060146EED12046FBF7D2F85F
:105110000021CBF68071FBF743F845F6294120F0DA
:105120000040C3F60F61FBF78BFA00280CBF012685
:10513000002608981099406807F01F05401A48BFDC
:105140004042FBF7C3FA4FF05E51FBF781F804468B
:1051500075B16F1E20D017F00301A5F102001FD01A
:10516000012969D143F23331C4F2D111074671E00C
:105170000021C4F2D2212046B51CFBF78BFA002196
:105180000028C4F22011204618BF2E46FBF766FA0D
:10519000002818BF2E4687E00021C4F2C81170E035
:1051A0000021C4F2C81155E047F25E263C1FC3F649
:1051B000C066022908BFFC1E04BF41F66366C3F641
:1051C000BA66032815D345F61D27C3F6847700BFBA
:1051D00030463946FBF73CF83946FBF739F8394693
:1051E000FBF736F83946FBF733F8043C2106064650
:1051F000EED1B8F1000F11D0B8F1010410D014F0C5
:105200000301A8F1020011D0012940F08B804FF674
:10521000AD77C3F6B367044693E000BF0027C1E54E
:1052200041F27B47C3F6AE67BCE500BF41F27B4766
:10523000C3F6AE6785E000BF02294EF29A31A5F1B0
:105240000407C4F2E41108BFEF1E04BF4DF2BD21F4
:10525000C4F2DA11032814D34EF25435C3F685751F
:1052600008462946FAF7F4FF2946FAF7F1FF2946DE
:10527000FAF7EEFF2946FAF7EBFF043F390601463D
:10528000EED12046FBF716F80021CBF68071FAF735
:1052900087FF45F6294120F00040C3F60F61FBF778
:1052A000CFF9002808BF0236DDF820B01199DBF8ED
:1052B000080009F01F05401A48BF4042FBF706FAF4
:1052C0004FF05E51FAF7C4FF04467DB16F1E21D046
:1052D00017F00301A5F1020020D001294AD143F2C1
:1052E0003331C4F2D111074652E000BF0021C4F2AD
:1052F000D2212046351DFBF7CDF900210028C4F24C
:105300002011204618BF2E46FBF7A8F9002818BF29
:105310002E4667E00021C4F2C81150E00021C4F21B
:10532000C81135E047F25E27A8F10404C3F6C06750
:10533000022908BFA8F1030404BF41F66367C3F65E
:10534000BA670328FFF42EAD45F61D28C3F684780E
:1053500038464146FAF77CFF4146FAF779FF414665
:10536000FAF776FF4146FAF773FF043C2106074639
:10537000EED117E502294EF29A31A5F10407C4F2E5
:10538000E41108BFEF1E04BF4DF2BD21C4F2DA11D3
:10539000032814D34EF25435C3F6857508462946C2
:1053A000FAF756FF2946FAF753FF2946FAF750FF56
:1053B0002946FAF74DFF043F39060146EED1204653
:1053C000FAF778FF0021CBF68071FAF7E9FE45F68F
:1053D000294120F00040C3F60F61FBF731F90028A6
:1053E00008BF0436039FB6FA86F04FEA501BB8F1A7
:1053F000000F08BF0BF1020B029CDDE900864FF69F
:10540000FF70AAF81A00FF200B998AF81C004FF0D1
:10541000FF30CAF814000120B1F57A7F8AF818002D
:1054200006DAFA290AD0B1F5FA7F1FD1082008E080
:1054300006D0B1F5FA6F19D1182002E0002000E083
:1054400010208DF84800DAE9031012AB0078897952
:105450000122FDF7BFFD20B99DF84800C0088AF879
:1054600014009AF81600002800F06C800A98C0B268
:1054700002384FEA7000072838D8DFE800F0050D41
:1054800037173737372100BF00208DF848009AF8CA
:10549000151081421CD129E008208DF84800012018
:1054A0009AF81510814213D120E000BF10208DF82A
:1054B000480002209AF81510814209D116E000BF79
:1054C00018208DF8480003209AF8151081420DD05D
:1054D000DAE9031012AB0078C9790122FDF77AFDF1
:1054E00020B99DF84800C0088AF815009AF81600FF
:1054F00040B3099810B1012011E000BF079808B12E
:1055000002200CE0069808B1032008E0059808B1D5
:10551000042004E0049800280CBF062005209AF817
:1055200017108DF8480081420CD0DAE9031012AB55
:10553000007889780122FDF74DFD18B99DF84800E3
:105540008AF81700404600F0A3F9384600F044FA04
:105550003046FEF7C1FD14B1012000F0DBF85846DB
:1055600013B0BDE8F08F00BF02000000040000008F
:105570000800000010000000040000000800000007
:10558000100000002000000010B582B040F21004AE
:10559000C2F20004A17D00292DD002384FEA70012B
:1055A00007294FF0FF303AD8DFE801F0040C391436
:1055B0003939392A00208DF80700617D814226D0D3
:1055C0000FE000BF08208DF807000120617D8142B7
:1055D0001DD006E010208DF807000220617D814279
:1055E00015D0D4E903100DF107030078C979012221
:1055F000FDF7F0FC70B14FF0FF3002B010BD00BFFE
:1056000018208DF807000320617D8142E9D1002038
:1056100002B010BD9DF80700C0086075002002B000
:1056200010BD0000B0B582B040F21005C2F2000516
:10563000A97F814202D1002002B0B0BD0446D5E965
:1056400003100DF10703007809790122FDF768FCCA
:1056500094B3002846D19DF807000DF1070300F030
:10566000DF008DF80700D5E90310012200780979E1
:10567000FDF7B0FCB0BB0320FBF716FB95F82E102E
:1056800095F82F206FF07D00002908BF02208DF8CB
:1056900007001AB140F030008DF80700D5E903107B
:1056A0000DF107030078097D0122FDF793FCC8B9CD
:1056B000AC77002002B0B0BDA0B99DF80700A97D6D
:1056C00000F0DF0001F0010140EA41108DF8070011
:1056D000D5E903100DF10703007809790122FDF7E0
:1056E00079FC18B14FF0FF3002B0B0BD0320FBF7DA
:1056F000DBFA95F82E0095F82F10024600281CBF03
:1057000001226FF07F00D20100298DF80720C1D15E
:10571000C4E70000B0B582B040F21004C2F2000449
:1057200094F8301081425DD0D0B394F83100002855
:105730005CD009B9A07D78B100208DF80500D4E9CE
:1057400003100DF105030078C97B0122FDF742FC2F
:1057500010B99DF80500607700200025FFF762FF73
:10576000608E00F095F820698DF80450007801AB48
:10577000232101220125FDF72DFC02208DF80600D2
:10578000D4E903100DF106030078C97B012284F8E7
:105790003050FDF71FFC18BB9DF8060060771FE036
:1057A00009B9A07D78B100208DF80700D4E9031075
:1057B0000DF107030078C97B0122FDF70BFC10B93E
:1057C0009DF807006077207F21698DF80400087834
:1057D00001AB23210122FDF7FDFB002084F83000FE
:1057E000FFF774F9002002B0B0BD00BF4FF0FF30EA
:1057F00002B0B0BD10B582B040F21004C2F2000495
:10580000A17DD1B3BC2807D30120E17D8DF807002D
:1058100081423AD027E000BF622807D30220E17D11
:105820008DF80700814230D01DE000BF2A2807D341
:105830000320E17D8DF80700814226D013E000BFF0
:10584000142807D30420E17D8DF8070081421CD085
:1058500009E000BF0A2834BF06200520E17D8DF84D
:105860000700814211D0D4E903100DF1070300783D
:1058700089780122FDF7AEFB20B14FF0FF3002B076
:1058800010BD00BF9DF80700E075002002B010BDFC
:1058900070B582B040F21005C2F20005A97D044641
:1058A00000294FF0FF3000F0948095F83010002967
:1058B00040F08F8095F8200000283ED0601E80B216
:1058C000272805D8E0B2FEF793FF002002B070BD94
:1058D00095F82F0000B3A87F95F82E1002460028F7
:1058E00018BF012252008DF8062039B16FF07D01FA
:1058F000002808BF6FF07F018DF80610D5E903106E
:105900000DF106030078097D0122FDF763FB0028F5
:1059100004BF002085F82F004FF4E060ADF80400CC
:10592000D5E9031001AB0078897C0222FDF752FB18
:10593000002804BF002085F820004FF47A76B4F5E3
:105940007A7F28BF3446042C98BF0424B6FBF4F0B9
:105950000DF1030301388DF80300D5E9031001228E
:1059600000784978FDF736FB20B14FF0FF3002B0E8
:1059700070BD00BF9DF80300AA7D411CB6FBF1F18C
:1059800069832AB3012801D801200FE0042801D837
:1059900002200BE00A2801D8032007E0182801D8CC
:1059A000042003E031288CBF06200520E97D8DF816
:1059B000070081420CD0D5E903100DF107030078F0
:1059C00089780122FDF706FB10B99DF80700E875FC
:1059D000002002B070BD0000B0B582B0044610F0E7
:1059E000700F01D0012003E0002C0CBF40200020EC
:1059F00040F21005C2F200058DF80600D5E903104B
:105A00000DF106030078897C0122FDF7E3FAF8B96D
:105A10009DF80600A10600F0BF024FF0040020EA46
:105A2000141058BF0230C4F30011084480F0010084
:105A3000210758BF38308DF80600D5E903102A76C3
:105A40000078C97C0DF106030122FDF7C3FA38B1D5
:105A50000020A8754FF0FF34204602B0B0BD00BF53
:105A600014F0F70F23D095F82F0000B3A87F95F816
:105A70002E100246002818BF012252008DF8072080
:105A800039B16FF07D01002808BF6FF07F018DF8FC
:105A90000710D5E903100DF107030078097D0122F5
:105AA000FDF798FA002804BF002085F82F00AC7598
:105AB0000024322085F82040FBF7F6F8204602B09B
:105AC000B0BD000070B582B00D4601464FF0FF300A
:105AD00042B340F21006C2F200061446B27D0AB389
