:020000040800F2
:10000000000500200101000829260008A91D00089C
:10001000252600081D0B00084926000800000000E6
:100020000000000000000000000000003126000871
:10003000210B0008000000002D26000835260008CE
:100040001B0100081B0100081B0100081B01000820
:100050001B0100081B0100081B0100081B01000810
:100060001B0100081B0100081B0100081B01000800
:100070001B0100081B0100081B0100081B010008F0
:100080001B0100081B0100081B0100081B010008E0
:100090001B0100081B0100081B0100081B010008D0
:1000A0001B0100083D2600081B0100081B01000879
:1000B0001B0100081B0100081B0100081B010008B0
:1000C0001B0100081B0100081B0100081B010008A0
:1000D0001B0100081B0100081B0100081B01000890
:1000E0001B0100081B0100081B010008DFF80CD0F1
:1000F00000F0A0FC0048004729330008000500205C
:100100000648804706480047FEE7FEE7FEE7FEE7B1
:10011000FEE7FEE7FEE7FEE7FEE7FEE7392600081A
:10012000ED0000082DE9F0410024061B254671F181
:10013000000605DA01240027D0EB070067EB010178
:10014000161E73F1000605DA0027D2EB070201251F
:1001500067EB030300F029FB86460E4617469C46D4
:10016000AC4204D00025D0EB050E65EB010624B1AE
:100170000020D2EB000760EB030C704631463A4694
:100180006346BDE8F08130B504460020034600E038
:100190005B1C934203D2E05CCD5C401BF8D030BDC9
:1001A000F0B480EA0102D40F4200B2EB410F02D258
:1001B0000246084611464A0042D0C30DDDB2C1F3E3
:1001C000C752AD1A202D35DAC1F3160141F40002F1
:1001D00004B15242C5F1200602FA06F12A41104448
:1001E000B3EBD05F23D0C4B1012DA0EBC35009DC29
:1001F000F0BC4FF0004202EAC352DBB200F500004F
:1002000000F02EBB400000F1807000EBC350A0F165
:10021000807040EAD170490009E0490841EAC071A4
:10022000A0EBC35000F50000400800EBC350F0BC49
:1002300000F00DBB6142012202EB4101001BF6E719
:10024000F0BC704781F00041AAE780F00040A7E7CA
:1002500080EA010210B502F00043400022D04A00BB
:100260001FD0010E01EB1261C0F35600C2F356021B
:1002700040F4000042F40002A0FB022000047F3999
:10028000140400D0401C50EA124001D44000491E22
:10029000C2B20C0604EBD010401C4008802A02D0E9
:1002A00003E0002010BD20F00100002900DA00204A
:1002B000184310BD30B480EA010202F0004530F06E
:1002C000004221F0004013D090B1C30DD40DC2F311
:1002D0001601C0F31600E41A41F4000140F40002D4
:1002E0007D34914201D3641C00E04900002C02DA05
:1002F00030BC002070474FF400000023914201D32E
:10030000891A034340084FEA4101F7D151B19142A4
:1003100002D14FF0004105E002D24FF0010101E0AF
:100320006FF0010103EBC450284430BC00F08FBAD9
:100330002DE9FE4F804681EA0300C00F0C46009075
:1003400021F0004123F00045B8EB0200A94105D29D
:100350004046214690461C460B46024623F000408C
:10036000104347D0270DC7F30A00C3F30A51029088
:10037000401A019040286BDAC3F3130040F4801B4D
:100380000098924620B10023D2EB030A63EB0B0BDB
:1003900001985946C0F14002504600F037FA06462F
:1003A0000D4650465946019A00F03FFA10EB0800FE
:1003B0006141002487EA115284EAE7731A4340D06E
:1003C000009A62B3019A012A4FEA075215DC001B1A
:1003D00061EB02014FF0004202EA0752CDE9004210
:1003E000001C41F5801132462B4600F076FA03B02E
:1003F000BDE8F08F40462146F9E7001B61EB0201A2
:10040000001C41F5801300185B412018A2F500176D
:1004100047EB030140EAD570B6196D4111E06D0854
:100420004FEA360645EAC0754FEA0752001B61EBFA
:100430000201001C41F5801149084FEA3000001903
:10044000514132462B4603B0BDE8F04F00F036BABA
:100450000098012240000023D0EB020263EBE0731E
:10046000009821464FEAE074B8EB000061EB04010C
:10047000E9E783F000435BE781F0004158E72DE9AD
:10048000FE4F81EA030404F0004421F0004100948F
:100490004FF0000B23F0004350EA01045ED052EA13
:1004A00003045BD0C3F30A54C1F30A552C44A4F2ED
:1004B000F3340194A0FB0254C1F3130141F4801101
:1004C000C3F3130343F4801301FB024400FB034E08
:1004D000840A970A44EA815447EA8357A4FB0768D1
:1004E00002958D0A05FB07854FEA932C04FB0C54FB
:1004F0002705029D4FEA065847EA1637B5EB08056F
:100500006EEB070C870E920E47EA811742EA8312C0
:10051000A7FB0201B6EB0B0164EB00042B0D43EAD1
:100520000C335E1844EB1C50DA465146E7FB0201DF
:10053000C5F313044FEA0B3343EA14534FEA043272
:10054000019C43EA0603A4F10C040294009CCDE94B
:1005500000B400F0C2F903B0BDE8F08F00200146FE
:10056000F9E72DE9F04D81EA030404F0004B21F096
:10057000004514464FF0000A23F0004150EA0502FE
:1005800020D054EA01021DD0C5F30A570246C5F334
:100590001303C1F31300C1F30A5640F4801543F46A
:1005A0008013A7EB0608101BD64608F2FD3873EB44
:1005B000050002D308F1010801E092185B41B8F18F
:1005C000000F03DA00200146BDE8F08D00204FF453
:1005D0008011064684460EE0171B73EB050705D312
:1005E000121B63EB050306434CEA010C49084FEA72
:1005F000300092185B4150EA0107EDD152EA030046
:1006000012D082EA040083EA0501084305D0101BDA
:10061000AB4106D20122002306E000224FF0004346
:1006200002E06FF0010253101AEB06004CEB085188
:1006300010EB0A0041EB0B01BDE8F04D00F03EB9B4
:10064000002801DBC0F10040002901DBC1F10041BD
:10065000814201D80120704700207047002801DB4B
:10066000C0F10040002901DBC1F10041814201D20B
:100670000120704700207047002801DBC0F10040D6
:10068000002901DBC1F10041814201D901207047FD
:1006900000207047002801DBC0F10040002901DB89
:1006A000C1F10041814201D1012070470020704713
:1006B000C10F80EAE0700844CA079623002100F0C9
:1006C000CFB896230022114600F0CAB80EB5C10F6C
:1006D00080EAE0700844CA07002140F233438DE805
:1006E0000E000A460B4600F0F8F803B000BD00F01B
:1006F000004220F00040C10DC0F3160040F400009D
:100700007F2901DA00207047962903DCC1F19601A8
:10071000C84001E096398840002AF4D04042704732
:1007200000F0004230F000400AD0C10D01F56071C8
:10073000C0F3160042EA0151C20840071143704756
:1007400000200146704701F0004330B421F0004121
:1007500050EA010206D00A0DA2F56072C1F313013E
:10076000002A02DC30BC00207047440F44EAC10478
:10077000C100E01830BC00EBC25000F068B830B5E2
:100780000B46014600202022012409E021FA02F54F
:100790009D4205D303FA02F5491B04FA02F52844E9
:1007A000151EA2F10102F1DC30BD2DE9F05F054616
:1007B000002092469B4688460646814640241BE020
:1007C000284641464746224600F046F953465A46D7
:1007D000C01A914110D311461846224600F016F86F
:1007E0002D1A67EB01084F4622460120002100F038
:1007F0000DF817EB00094E41201EA4F10104DFDCC7
:10080000484631462A464346BDE8F09F202A04DB8D
:10081000203A00FA02F1002070479140C2F1200313
:1008200020FA03F3194390407047202A06DBCB17C8
:10083000203A41FA02F043EAE07306E041FA02F39B
:10084000D040C2F120029140084319467047002968
:10085000A8BF7047401C490008BF20F00100704746
:1008600010B4B0FA80FC00FA0CF050EA010404BFA6
:1008700010BC704749B1CCF1200421FA04F411FAFC
:100880000CF118BF012121430843A3EB0C01CB1D40
:100890004FEA00614FEA102042BF002010BC7047B1
:1008A00000EBC35010440029A4BF10BC7047401C8B
:1008B000490008BF20F0010010BC704710B5141E9D
:1008C00073F1000408DA401C41F1000192185B4109
:1008D0001A4301D120F0010010BD2DE9F04D9246E0
:1008E0009B4611B1B1FA81F202E0B0FA80F22032F7
:1008F0009046FFF78BFF04460F4640EA0A0041EAA4
:100900000B0153465A46084313D0114653EA0100DF
:1009100019D0C8F14002504600F09EF805460E4638
:10092000504659464246FFF771FF084305D0012063
:1009300004E020463946BDE8F08D0020054346EA34
:10094000E0762C4337430A986305E40AA0EB0800DD
:100950000022FD0A44EA47540A3002D5002001462D
:10096000E9E7010510196941DDE908450019694108
:10097000BDE8F04DA2E770B521F0004303430CD071
:10098000C1F30A550024D5EB040564EB0403D61724
:10099000AD1AB34102DB0020014670BD201841EBC7
:1009A000025170BDC1F30A52C1F3130140F2FF338B
:1009B00041F480119A4202DA00200146704740F269
:1009C00033439A42A2F2334202DC524200F044B86E
:1009D000FFF71CBF30B5041E71F1000404DB4FF0BB
:1009E0000044404264EB0101141E73F1000405DB76
:1009F0001C464FF00043524263EB04038B4208BF96
:100A0000824230BD30B5041E71F1000404DB4FF0AA
:100A10000044404264EB0101141E73F1000405DB45
:100A20001C464FF00043524263EB0403994208BF57
:100A3000904230BD064C074D06E0E06840F00103EF
:100A400094E8070098471034AC42F6D3FFF752FB06
:100A5000246E0008446E0008202A04DB203A21FAA4
:100A600002F00021704721FA02F3D040C2F12002C7
:100A700091400843194670472DE9F04D00231A466E
:100A80001B1A8A4103DB00200146BDE8F08DC1F34B
:100A90000A52C1F3130141F480154FF0000BD10746
:100AA00002D100186D41521E0027044640F2FF118A
:100AB000384601EB620A3E468046024600204FF46B
:100AC0008011FFF7C9FFC2197141BB1846EB010045
:100AD000B4EB030C75EB000C04D3E41A65EB0005D2
:100AE00017460E46241908F101006D41804634284E
:100AF000E3DDF91946EB0600091BA84103D24FF0CC
:100B0000FF32134601E0002213461BEB070046EBC1
:100B10000A51BDE8F04DFFF7D1BE0000FEE700002E
:100B200070470000EFF3108072B600BFFEE70000D0
:100B3000B0B5044600F02AF9054640F20800C2F2BA
:100B400000000078611C18BF044400BF00F01EF9CB
:100B5000401BA042FAD3B0BD2DE9F04F82B00E6821
:100B6000002E00F0038141F20042C4F2010204238E
:100B700040F2004E904208BF03234FF6FF7CC4F2C0
:100B8000010E009300240123C1F2100C4FF0000A63
:100B90004FF0000949E000BF012704F00C030F22C9
:100BA0009A402BEA020207FA03F34FEA9A051A4326
:100BB00046F82520D1F804B040F20C455FEACB227C
:100BC000DEF8082054BF22EA080242EA0802C4F212
:100BD0000105CEF808202A685FEA8B2354BF22EA79
:100BE000080242EA08022A605FEA8B33DEF804203A
:100BF00054BF22EA080242EA08025FEACB33CEF889
:100C00000420DEF800204FF0010354BF22EA08025E
:100C100042EA0802CEF800200E680AF1010A36FA0C
:100C20000AF204F1040400F0A18003FA0AF816EABB
:100C3000080FF1D04E68664512DC122E56D8DFE858
:100C400006F0350B4549555555555555555555558E
:100C50005555554D510000BFD1F80C9046E000BFEE
:100C60004FF6FF72C1F2210296420FDC0022C1F260
:100C7000110296421AD00022C1F21202964215D0F9
:100C80000022C1F22102964210D02FE00022C1F2D0
:100C9000220296420AD00022C1F23102964205D0C9
:100CA0000022C1F23202964220D100BF8A684AB1C6
:100CB000012A14BFC0F81480C0F810804FF0080952
:100CC00014E000BF4FF0040910E000BFCA6802F151
:100CD00008090BE04FF0000908E000BFCA6802F104
:100CE000040903E0CA6802F10C0900BF2246064667
:100CF000BAF1080F24BF203A043637680F25954013
:100D000027EA050509FA02F22A433260CA79D206B7
:100D10007FF582AF41F21803C4F202031A68AEF500
:100D20007E7642F001021A601A6802F00102019216
:100D3000019A2AF0030256F802B040F60002C4F20B
:100D40000102904210D040F60042C4F201029042EB
:100D50003FF422AF41F20002C4F20102009F904230
:100D600008BF022719E700BF002716E702B0BDE859
:100D7000F08F00008068084018BF01207047000015
:100D8000002A08BF090401617047000040F2F80022
:100D9000C2F200000068704740F2080040F2F8011B
:100DA000C2F20000C2F2000100780A681044086034
:100DB0007047000080B542F20000C4F202000168F2
:100DC00041F010010160032000F08EF80F2000F0C8
:100DD00005F800F027F8002080BD000070B540F253
:100DE0000806C2F2000640F248013278C2F2000161
:100DF0004FF47A730968B3FBF2F20446B1FBF2F1E7
:100E0000084600F063FB0F2C4FF0010508D838B9F5
:100E10004FF0FF3021460022002500F039F87460C1
:100E2000284670BD82B041F21800C4F20200016889
:100E3000022241F001010160016801F0010101910C
:100E40000199416841F080514160406800F0805054
:100E5000009000980420C4F20100016862F31A6156
:100E6000016002B070470000002848BF7047C1B25F
:100E700000F01F00012202FA00F04EF20012CEF242
:100E8000000242EAD10121F003010860704700002E
:100E900010B54EF60C5CCEF2000CDCF80030C3F35B
:100EA000022E8EF00704042C28BF0424BEF1030395
:100EB0004FF0FF3E0EFA04F438BF0023A1439940DF
:100EC0000EFA03F39A43114300F00F0200F160435E
:100ED0000901043A03F564436244002848BF02F163
:100EE0000C03197010BD00004EF60C51CEF200013B
:100EF0000A684FF6FF031A4060F30A2242F080604E
:100F000040F0FD70086070472DE9F04381B0002883
:100F100000F0858042F20008C4F202080446D8F8C6
:100F200000000D4600F0070088420CD2D8F80000FF
:100F300020F007002843C8F80000D8F8000000F0AF
:100F40000700A8426BD1206841F204098107C4F26E
:100F5000020917D5410705D5D9F8001041F4E06121
:100F6000C9F80010010705D5D9F8001041F4605107
:100F7000C9F80010D9F80010A26821F0F00111435F
:100F8000C9F80010C00741D1D8F8000000F00700F0
:100F9000A8420CD9D8F8000020F007002843C8F870
:100FA0000000D8F8000000F00700A84237D1206800
:100FB000410707D5D9F80010E26821F4E061114338
:100FC000C9F80010000708D5D9F80000216920F4FD
:100FD000605040EAC100C9F80000D9F8002002F0D2
:100FE0000C00082841F20020C0F27A0050D146F2ED
:100FF0008013C2F38341C0F60003595CD2033BD493
:1010000040F60010C0F23D00484341E0606802280D
:101010000AD001282AD159F8041C890308D40120D8
:1010200001B0BDE8F08300BF59F8041C8901F6D572
:10103000D9F8001021F003010843C9F80000FFF7B8
:10104000A5FE064641F28837D9F80000616800F035
:101050000C00B0EB810F97D0FFF798FE801BB842D1
:10106000F2D9032001B0BDE8F08300BF59F8041C99
:101070008907D4D5DCE700BFD9F8002046F27E13FB
:10108000C2F34042C0F600039A5C4843B0FBF2F062
:10109000D9F8001046F26612C1F30311C0F600023F
:1010A000515C40F2480220FA01F140F20C00C2F219
:1010B00000000068C2F200021160FFF78FFE0020FE
:1010C00001B0BDE8F083000040F2480041F20401A5
:1010D000C2F20000C4F202010068096846F276120A
:1010E000C1F30221C0F60002515CC8407047000005
:1010F00040F2480041F20401C2F20000C4F20201D1
:101100000068096846F27612C1F3C221C0F60002F7
:10111000515CC840704700002DE9F04182B00028C2
:1011200068D00446007841F20006C007C4F2020607
:1011300025D0706800F00C0004281BD0706800F007
:101140000C00082802D17068C00313D4606800281E
:1011500000F06881B0F5A02F00F07C81B0F5803FF1
:1011600000F07C81306820F480303060306820F4FA
:10117000802076E13068800301D56068D0B32078A4
:10118000800718D5706810F00C0F07D0706800F059
:101190000C0008286ED17068C0036BD430688007DB
:1011A00002D52069012825D13068616920F0F80056
:1011B00040EAC1003060207800071FD42078400743
:1011C00032D4E56995B1706800F00C00082840F051
:1011D0008F80012D0ED07068216A00F480328A421F
:1011E00008D1616A00F47010884203D1002002B077
:1011F000BDE8F081012002B0BDE8F081A0690028BF
:1012000062D00020C4F242200121C0F88014FFF710
:10121000BDFD0546706A800700F18C80FFF7B6FDC2
:10122000401B0228F6D92AE1F06910F0805808D155
:10123000F06940F08050F061F06900F0805000905B
:10124000009847F20007C4F200073868C00529D4A7
:10125000386840F480703860FFF798FD054600BF9D
:101260003868C0051ED4FFF791FD401B6428F7D9EC
:1012700005E100BF2069002840F20000C4F24220CE
:1012800000F0828001210160FFF780FD054600BF6C
:10129000306880073FF588AFFFF778FD401B0228D4
:1012A000F6D9ECE0E068002800F08080052800F026
:1012B0009780012800F09880306A20F001003062A9
:1012C000306A20F0040092E00020C4F242200021A5
:1012D000C0F88014FFF75AFD054600BF706A80070A
:1012E0007FF56CAFFFF752FD401B0228F6D9C6E030
:1012F0000027C4F2422700203866FFF747FD022D81
:1013000005460BD13068800140F1BE80FFF73EFDFD
:10131000401B02284FF00300F4D968E730688001D1
:101320007FF564AFFFF732FD401B02284FF003004A
:10133000F4D95CE740F24800C2F20000006844F6CD
:10134000D351C1F26201A0FB0101480A019000BF24
:1013500000BF0198411E002801913FF42FAF00BF4C
:101360000198411E002801913FF428AF00BF019869
:10137000411E002801913FF421AF00BF0198411E9A
:1013800000280191E4D119E700210160FFF7FEFC7C
:10139000054600BF306880077FF50DAFFFF7F6FC0C
:1013A000401B02284FF00300F4D920E7306A20F0F8
:1013B00001003062306A20F004003062FFF7E6FC82
:1013C000054641F2883700BF306A800720D5FFF715
:1013D000DDFC401BB8424FF00300F5D907E700BF22
:1013E000306A40F004003062306A40F00100306240
:1013F000FFF7CCFC054641F2883700BF306A800712
:1014000006D4FFF7C3FC401BB842F7D937E000BF52
:10141000B8F1000F7FF4D5AEF06920F08050F06194
:10142000CFE600BF306820F480303060306820F4B0
:1014300080203060FFF7AAFC054600BF30688003BB
:101440007FF59DAEFFF7A2FC401B64284FF0030020
:10145000F4D9CCE6306840F480203060306840F445
:1014600080303060FFF792FC054600BF3068800393
:101470003FF585AEFFF78AFC401B6428F6D90320B0
:1014800002B0BDE8F08100BF206AB0F5803F05D111
:101490007168A26821F40031114371607168626A59
:1014A00021F4741111430843706001203866FFF77E
:1014B0006DFC0446306880013FF598AEFFF766FC8E
:1014C000001B02284FF00300F4D990E6411E0020D3
:1014D000B0EB116F1CBF012070474EF21002CEF22C
:1014E000000251604EF62351CEF20001F0230B7042
:1014F000072190601160704770470000704700003E
:1015000010B590F83C20012A4FF0020233D080F849
:101510003D200268D2F804E0D2F808C00C682EF032
:101520007003234340F2FF74C4F20004A2425360EC
:101530000ADCB2F1804F13D040F20043C4F2000342
:101540009A420DD011E000BF42F60043C4F20103FD
:101550009A4205D040F60003C4F200039A4204D137
:1015600049682CF08003194391600121002280F822
:101570003D1080F83C20104610BD0000002804BF3C
:101580000120704710B5044690F83D0028B90020AE
:1015900084F83C00204600F067F8022084F83D0003
:1015A000206840F2FF730268C4F2000342F6004C68
:1015B0009842C4F2010C15DCB0F1804F1AD040F211
:1015C0000041C4F20001884214D0984218DCB0F106
:1015D000804F1DD040F20041C4F20001884217D074
:1015E0001AE000BF604505D040F60001C4F20001DA
:1015F0008842EAD1A16822F070020A439842E6DDEF
:10160000604505D040F60001C4F20001884203D1D4
:10161000216922F440720A43A36922F08001D4F8C0
:1016200004E0E268194360450160C262C0F828E046
:1016300002D16169CCF8301001214161002084F8A9
:10164000461084F83E1084F83F1084F8401084F867
:10165000411084F8421084F8431084F8441084F850
:10166000451084F83D1010BD80B582B0006842F688
:101670000041C4F2010188421CBF02B080BD41F2AA
:101680001800C4F202000168002241F40061016008
:101690000068002100F40060019001981920FFF714
:1016A000F7FB192002B0BDE88040FFF7DDBB00006A
:1016B00080B590F83C20012A4FF0020200F0C28071
:1016C00080F83D20D0F800C04FF67772DCF8083083
:1016D00023EA0202CCF808200B684F2B28DC1F2BD2
:1016E00044DD202B45D0302B43D0402B40F0AC8044
:1016F000D1F804E0C968DCF82030DCF8202022F0C2
:101700000102CCF82020DCF8182022F0F00242EA96
:10171000011123F00A0242EA0E02CCF81810CCF8AC
:101720002020DCF8081041F0470121F0300180E072
:101730006F2B27DDB3F5005F48D0B3F5805F7AD01B
:10174000702B40F08180D1E901E3C968DCF8082002
:1017500043EA0E0322F47F4243EA01211143CCF80D
:101760000810DCF8081041F0770162E00BB1102B93
:101770006AD1DCF8081021F07001194341F007012B
:1017800057E000BF502B35D0602B5DD1D1F804E07D
:10179000C968DCF82030DCF8202022F01002CCF8F8
:1017A0002020DCF8182022F4704242EA013123F0B4
:1017B000A00242EA0E12CCF81810CCF82020DCF877
:1017C000081041F0670121F0100132E0D1E901E396
:1017D000C968DCF8082043EA0E0322F47F4243EA9A
:1017E00001211143CCF80810DCF8081041F48041C5
:1017F0001FE000BFD1F804E0C968DCF82030DCF855
:10180000202022F00102CCF82020DCF8182022F061
:10181000F00242EA011123F00A0242EA0E02CCF879
:101820001810CCF82020DCF8081041F0570121F006
:101830002001CCF808100022012180F83D10002181
:1018400080F83C10104680BD0122F5E7704700008B
:1018500010B5016804460869800744BFC8685FEA9C
:10186000807039D40869400744BFC8685FEA407097
:101870003ED40869000744BFC8685FEA007045D4D9
:101880000869C00644BFC8685FEAC0604AD40869F6
:10189000C0071CBFC8685FEAC07051D10869000664
:1018A00044BFC8685FEA006052D40869400644BF7C
:1018B000C8685FEA406053D40869800646BFC868BC
:1018C0005FEA806010BD6FF0200220460A61BDE82B
:1018D0001040FFF713BE00BF6FF002000861012047
:1018E00020778869800743D02046FFF7AFFF45E0A7
:1018F0006FF00400086102202077886910F4407FAF
:1019000040D02046FFF7A2FF42E000BF6FF0080082
:10191000086104202077C86980073DD02046FFF782
:1019200095FF3FE06FF01000086108202077C8693C
:1019300010F4407F3AD02046FFF788FF3CE000BF1C
:101940006FF001000861204600F03EF82168A5E72D
:101950006FF0800008612046FFF7CEFD2168A4E704
:101960006FF040000861204600F030F82168A3E7DE
:10197000204600F025F8204600F024F821680020D9
:1019800020776FE7204600F01BF8204600F01AF899
:101990002168002020776CE7204600F011F82046EF
:1019A00000F010F821680020207769E7204600F059
:1019B00007F8204600F006F821680020207766E747
:1019C000704700007047000070470000704700003B
:1019D000002804BF0120704710B5044690F841006C
:1019E00028B9002084F84000204600F063F8242045
:1019F00084F841002068D4E90212C36823F400533C
:101A0000C360036923F440531A430261D4E90423F9
:101A10001143C268194341F20C639A431143C160F8
:101A20004169A26921F44071114343F60002C4F2F6
:101A300001029042416103D0FFF746FB02E000BF84
:101A4000FFF756FB6268192148439100B0FBF1F0A3
:101A500048F21F51C5F2EB11A0FB01235A094FF6C2
:101A60009C73C0F6FF7302FB0300322303EB0010EC
:101A7000A0FB0101F02303EA5113206803EB0212DB
:101A8000C1F3431111448160016921F49041016166
:101A9000416921F02A014161C16841F40051C160EE
:101AA00000202021606484F8411084F842106063B3
:101AB00010BD000070B586B040F60004C4F2010409
:101AC000006804F5405100268842049602D006B012
:101AD00070BD00BF41F21800C4F20200016802ADFF
:101AE00041F480410160016801F480410191019954
:101AF000016841F0040101600068294600F004001B
:101B0000019001984FF4007002900220039003208E
:101B100005902046FFF720F84FF48060CDE90206DB
:101B2000204629460496FFF717F806B070BD00005E
:101B30002DE9F04381B0044690F84100202840F0A0
:101B4000B180884600294FF0010000F0D68016468B
:101B5000002A00F0D2800020606421201D4684F815
:101B60004100FFF713F9A684E684A1680646B1F5A3
:101B7000805F03D12069002800F0988047464FF02D
:101B80000008E18C2068002900F0968005F1010929
:101B90000BE000BF47B317F8011B4160E18C01392E
:101BA000E184E18C002900F0878001680906F1D406
:101BB000B9F1000F0AD0EDB1FFF7E8F8801BA84299
:101BC00018D8206801680906F6D5E3E70168090618
:101BD000E0D4016809065CBF01685FEA0161D9D4FD
:101BE00001680906F2D5D5E738F8021B00276FF324
:101BF0005F21D2E7206850E8030F216820F4D070FD
:101C000041E80302BAB3206850E8030F216820F4CA
:101C1000D07041E8030272B3206850E8030F2168D6
:101C200020F4D07041E803022AB3206850E8030F83
:101C3000216820F4D07041E80302002ADAD11AE0CA
:101C4000206850E8050F216820F0010041E80502F6
:101C5000DAB1206850E8050F216820F0010041E862
:101C6000050292B1206850E8050F216820F00100BC
:101C700041E805024AB1206850E8050F216820F0CC
:101C8000010041E80502002ADAD1202084F8410051
:101C900084F84200002084F84000032001B0BDE831
:101CA000F08300BF022001B0BDE8F0830027E18C83
:101CB000206800297FF46AAF0168490619D4FDB194
:101CC000691C0DD10168490613D4016849065CBF3F
:101CD00001685FEA41610CD401684906F2D508E069
:101CE000FFF754F8801BA8420AD820680068400615
:101CF000F6D5202084F84100002001B0BDE8F08333
:101D0000206850E8030F216820F4D07041E80302F6
:101D1000002A3ED0206850E8030F216820F4D070DC
:101D200041E80302AAB3206850E8030F216820F4B9
:101D3000D07041E8030262B3206850E8030F2168C5
:101D400020F4D07041E80302002AD9D121E000BF7D
:101D5000206850E8050F216820F0010041E80502E5
:101D6000002A3FF492AF206850E8050F216820F068
:101D7000010041E80502002A3FF487AF206850E8DF
:101D8000050F216820F0010041E80502002A3FF418
:101D90007CAF206850E8050F216820F0010041E881
:101DA0000502002AD4D170E7FEE7000010B584B028
:101DB00041F21800C4F20200016840F6004441F00C
:101DC000080101600068C4F2010400F008000090FE
:101DD00000984FF440700090032003901120019070
:101DE00069462046FEF7B8FE20464FF400710022F7
:101DF000FEF7C6FF20464FF480710122FEF7C0FFB8
:101E000020464FF400710122FEF7BAFF04B010BD66
:101E10002DE9F04F83B040F60045C4F20105019072
:101E200028464FF480710122FEF7AAFF28464FF49E
:101E30000071FEF79FFF029028464FF48071002248
:101E4000FEF79EFF28464FF480710122FEF798FFAF
:101E500028464FF40071FEF78DFF824628464FF466
:101E600080710022FEF78CFF28464FF4807101221A
:101E7000FEF786FF28464FF40071FEF77BFF83468E
:101E800028464FF480710022FEF77AFF28464FF46F
:101E900080710122FEF774FF28464FF40071FEF7AF
:101EA00069FF044628464FF480710022FEF768FF60
:101EB00028464FF480710122FEF762FF28464FF456
:101EC0000071FEF757FF064628464FF48071002246
:101ED000FEF756FF28464FF480710122FEF750FFAF
:101EE00028464FF40071FEF745FF074628464FF499
:101EF00080710022FEF744FF28464FF480710122D2
:101F0000FEF73EFF28464FF40071FEF733FF804690
:101F100028464FF480710022FEF732FF28464FF426
:101F200080710122FEF72CFF28464FF40071FEF766
:101F300021FF814628464FF480710022FEF720FFE2
:101F40000198C8B128464FF400710022FEF718FF2F
:101F500028464FF480710122FEF712FF28464FF405
:101F600080710022FEF70CFF28464FF40071012219
:101F7000FEF706FF12E000BF28464FF40071012271
:101F8000FEF7FEFE28464FF480710122FEF7F8FEB0
:101F900028464FF480710022FEF7F2FE02980028D6
:101FA00018BF0120BAF1000F18BF4FF0010A4AEA2A
:101FB00040008000BBF1000F18BF4FF0010B40EA5A
:101FC0004B00002C18BF012420448000002E18BFB5
:101FD000012640EA4600002F18BF01273844800040
:101FE000B8F1000F18BF4FF0010840EA4800B9F1FE
:101FF000000F18BF4FF001094844C0B203B0BDE85C
:10200000F08F0000B0B540F60044C4F2010405466C
:10201000C20920464FF40071FEF7B2FE20464FF48D
:1020200080710122FEF7ACFE20464FF48071002241
:10203000FEF7A6FEC5F3801220464FF40071FEF7AE
:102040009FFE20464FF480710122FEF799FE204644
:102050004FF480710022FEF793FEC5F34012204634
:102060004FF40071FEF78CFE20464FF48071012280
:10207000FEF786FE20464FF480710022FEF780FEB8
:10208000C5F3001220464FF40071FEF779FE20469A
:102090004FF480710122FEF773FE20464FF48071E9
:1020A0000022FEF76DFEC5F3C00220464FF400711A
:1020B000FEF766FE20464FF480710122FEF760FEB7
:1020C00020464FF480710022FEF75AFEC5F38002CD
:1020D00020464FF40071FEF753FE20464FF4807106
:1020E0000122FEF74DFE20464FF480710022FEF7DC
:1020F00047FEC5F3400220464FF40071FEF740FE54
:1021000020464FF480710122FEF73AFE20464FF43C
:1021100080710022FEF734FE05F0010220464FF4E4
:102120000071FEF72DFE20464FF480710122FEF76C
:1021300027FE20464FF480710022FEF721FE204644
:102140004FF400710122BDE8B040FEF719BE000057
:1021500010B540F60044C4F2010420464FF400716B
:102160000122FEF70DFE20464FF480710122FEF79A
:1021700007FE20464FF400710022FEF701FE2046C4
:102180004FF480710022BDE81040FEF7F9BD000059
:1021900010B540F60044C4F2010420464FF400712B
:1021A0000022FEF7EDFD20464FF480710122FEF77C
:1021B000E7FD20464FF400710122BDE81040FEF714
:1021C000DFBD0000B0B540F60044C4F20104204673
:1021D0004FF400710122FEF7D3FD20464FF48071C9
:1021E0000122FEF7CDFD20464FF40071FEF7C2FD3F
:1021F0000546002820464FF480714FF0000218BFBA
:102200000125FEF7BDFD2846B0BD000070B582B0C7
:1022100014460D4606460DF1020368203B210622B6
:1022200000F0C0F810B102B070BD00BFBDF80210E0
:10223000BDF8042009BA090C318011BABDF8062096
:10224000090C298011BA090C218002B070BD000070
:1022500070B582B014460D4606460DF102036820A3
:102260004321062200F09EF810B102B070BD00BFFD
:10227000BDF80210BDF8042009BA090C318011BA6A
:10228000BDF80620090C298011BA090C218002B082
:1022900070BD000080B582B00DF1060368204121B9
:1022A000022200F07FF8BDF80600C0BAFEF70EFA71
:1022B00044F20003C4F275030022FEF752F947F21C
:1022C000A40244F2D733C0F63D22C4F24203FEF723
:1022D0002FF8FEF738FA0021C4F2C821FDF7B8FF45
:1022E000FEF705FA02B080BD10B5FFF75FFD6B2069
:1022F000802100F08FF86420FEF71AFC6B2000218B
:1023000000F088F81B20182100F084F81C20002120
:1023100000F080F81920132100F07CF81A20042125
:1023200000F078F83820002100F074F86A200021CD
:1023300000F070F82320002100F06CF83720802195
:1023400000F068F8FFF704FFD020FFF75BFEFFF70F
:1023500039FF7520FFF756FEFFF734FFFFF7F8FE51
:10236000D120FFF74FFEFFF72DFF0020FFF750FDB4
:102370000446FFF70DFF682C1CBF012010BD6B2029
:10238000012100F047F86C200021002400F042F801
:102390001920132100F03EF81A20042100F03AF829
:1023A000204610BDF0B581B01C4615460E460746C6
:1023B000FFF7CEFE7F00F8B2FFF724FEFFF702FF23
:1023C00030B10124FFF7E4FE204601B0F0BD00BFAC
:1023D0003046FFF717FEFFF7F5FEFFF7B9FE47F0AF
:1023E0000100C0B2FFF70EFEFFF7ECFE06E000BFF3
:1023F0000020FFF70DFD04F8010B013DE8B20128B4
:10240000F6D008B10120F4E70024FFF7C1FE204612
:1024100001B0F0BDB0B50C460546FFF799FED020DF
:10242000FFF7F0FDFFF7CEFE20B1FFF7B1FE012070
:10243000B0BD00BF2846FFF7E5FDFFF7C3FE20460D
:10244000FFF7E0FDFFF7BEFE0446002818BF012499
:10245000FFF79EFE2046B0BDF0B581B01C46154684
:102460000E460746FFF774FE7800C0B2FFF7CAFDBC
:10247000FFF7A8FE30B10124FFF78AFE204601B025
:10248000F0BD00BF3046FFF7BDFDFFF79BFE55B125
:102490002078FFF7B7FDFFF795FE0028EBD1013D4F
:1024A00004F10104F4D10024FFF772FE204601B0CC
:1024B000F0BD00002DE9F04184B041F21800C4F2F3
:1024C0000200016840F6004441F01001016001681B
:1024D000C4F2010401F0100100910099016804F5B3
:1024E000806541F0200101600168002201F02001B7
:1024F0000091009901684FF4005741F00401016018
:102500000168002601F0040100910099016841F082
:102510000801016000684FF4005100F008000090CD
:1025200000982846FEF72CFC20464FF4407100220C
:102530004FF44078FEF724FC00970127CDE901769F
:1025400002206E46039028463146FEF705FB112017
:10255000CDE901070320039020463146CDF80080E5
:10256000FEF7FAFA04B0BDE8F081000080B586B04D
:1025700040F2680042F600420021C2F20000C4F2BC
:102580000102472342F20F7C4FF0800E0591CDE906
:102590000311CDE90011C0E90023C0E9021CC0E924
:1025A0000411C0F818E0FEF7E9FF002818BFFEF795
:1025B000B9FA4FF48050029040F26800C2F2000075
:1025C00002A9FFF775F8002818BFFEF7ABFA40F232
:1025D0006800C2F200006946FEF792FF002818BFAB
:1025E000FEF7A0FA06B080BD80B540F2B00043F619
:1025F0000001C2F20000C4F2010100234FF00C0CF4
:102600004FF4E13280E80E00C0E90333C0E905C3AE
:10261000C361FFF7DDF9002808BF80BDBDE8804039
:10262000FEF780BAFEE70000FEE7000070470000FA
:1026300070470000FEF7B0BB7047000040F2680032
:10264000C2F20000FFF704B9FEE700002DE9F041F7
:1026500086B004464CF60220C0F6E3100DF10205E8
:10266000CDF80200682004212A4602F009FCA320CC
:102670006FF03F018DF8020014F0400608BF6FF0C4
:102680005C016FF037026FF03D0308BF6FF05C0232
:1026900008BF6FF05C038DF803106FF03B018DF8FD
:1026A00004208DF8053014F4C07708BF6FF05C018A
:1026B0006FF033026FF0390308BF6FF05C0208BFA0
:1026C0006FF05C038DF806104AF2A3318DF80720F5
:1026D000ADF809108DF80B0040F6A7200A212A4614
:1026E0008DF8083002F0CCFB202014F0030808BF5E
:1026F0006FF027008DF8020040F6B62001212A462F
:1027000002F0BEFBA0060BD4C720059048F6B0002F
:10271000CCF2C35004904AF6B820CAF6AA200AE0C8
:102720005D20059049F6B400C3F20D5004904AF6BE
:10273000B820C8F6B350039003AA4FF4976009215C
:1027400002F09EFB2FB36FF04D016FF0740214F492
:10275000807008BF6FF04F0108BF6FF07F026FF00D
:1027600049036FF0640508BF6FF04B03002808BFF2
:102770006FF06F058DF802108DF803200DF1020245
:1027800040F6A22004218DF804308DF8055002F0A7
:1027900077FBE00708D1D8208DF802000DF1020286
:1027A0004FF40B60012150E0F8208DF802000DF18C
:1027B00002024FF40B60012102F062FB0720FA21B4
:1027C00000F006FB3F208DF80C0003AA4FF4A47024
:1027D000012102F055FB00208DF80C0003AA40F205
:1027E0004F10012102F04CFB4FF4A050ADF80C004B
:1027F00003AA4FF4EF70022102F042FB4FF4C840ED
:10280000ADF80C0003AA4FF4ED70022102F038FB82
:1028100048F60060C9F2F900039003AA4FF4AE70C5
:10282000042102F02DFB4FF40060ADF80C0003AA68
:102830004FF4AD70022102F023FB4FF40070ADF8AD
:102840000C0003AA4FF4AC70022102F019FBA007A0
:102850006FF0260058BF6FF027008DF802000DF1D1
:10286000020240F23D70012102F00AFB600752BFF4
:102870004FF08B304CF2C020CCF2C460039003AA1E
:1028800040F69820042102F0FBFA01F0FDFAE00680
:1028900052BF4FF0A33042F62000C3F63000039041
:1028A00003AA40F69E20042102F0EAFA01F0ECFAB5
:1028B00040F2500544F00800C2F20005A88001F083
:1028C000E3FA002E18BF0626002F18BF063614F0B4
:1028D000140F18BF46F01006B8F1000F18BF0436E9
:1028E00000202E7006B0BDE8F081000046F2901185
:1028F000C0F6000140F6F6304FF48062C82301F0C4
:10290000B1B800002DE9F04F89B01446DDE912A2FC
:102910000F46002140F25009AAF80010C2F2000947
:1029200099F800100DF1040B8046084659461E46E2
:1029300001F04AFA20B14FF0FF3009B0BDE8F08F46
:10294000B9F804C01CF0140F52D09DF80520B6460B
:102950009DF80410BDF8066012049DF8095042EA83
:10296000016132BA9DF8083041EA1242BDF80A60AE
:1029700022602A0442EA036233BA42EA13436360E4
:102980009DF80D309DF80C60BDF80E501B0443EA15
:1029900006632EBA43EA16461214A6609DF811602B
:1029A000091452439DF8105001FB012136041A14FA
:1029B00046EA056602FB0211321402FB0211BDF861
:1029C00012006FF0885211444FF6FE7200BACFF633
:1029D000FF5246EA10409142E06071D801F054FA8B
:1029E0000020AAF800004FF0FF3009B0BDE8F08FDA
:1029F00000215FEA4C6026D541F001021BF801007E
:102A00001BF8022041F0030342EA002041F00202D9
:102A10001BF802201BF80330388043EA022041F003
:102A2000040241F005031BF802201BF803307880F4
:102A300043EA0220B880BAF8000041F0060140F0F5
:102A40000800AAF800001CF4C07F18D03BF8010071
:102A50000BEB010200BA5388000CA8F8000018BA6A
:102A60009288000CA8F8020010BA000CA8F8040024
:102A7000BAF80000063140F07000AAF800005FEAE2
:102A80008C7016D00BEB01056878EC78C10709D083
:102A9000D9F8082032B104F00700411CC4F3C20089
:102AA00090476878000704D5D9F80C1009B1A0093F
:102AB0008847304600F0ECFC002009B0BDE8F08FFC
:102AC000BAF80000102140F480707646AAF80000A1
:102AD0005FEA4C6090D4B6E710B584B004460DF1BF
:102AE000020000F0B9FE40F26000C2F2000000886F
:102AF000BDF802C000F00302430754F822204FF053
:102B00000C0348BF524203EA50038106E358C0F366
:102B1000811148BF5B4254F82110C00548BF4942AB
:102B20004FEACC3080FB02C480FB03E280FB010152
:102B30004FEA9C73800F43EA840C4FEA9E7340EA8D
:102B4000810EA00D8DF80400A00B8DF80500A009E2
:102B50008DF80600900D8DF80800900B8DF8090097
:102B600090098DF80A00880D8DF80C00880B8DF8FF
:102B70000D00880943EA82038DF80E0001AA4FF484
:102B800025700C218DF807C08DF80B308DF80FE003
:102B900002F076F904B010BD10B586B004464AF6CE
:102BA000BB70CDF6DF7005904FF2AA10CDF6DF7046
:102BB00004904FF2FE20CCF2AB40C82C039017D803
:102BC000E0B2C821B1FBF0F0002101388DF804100B
:102BD0008DF8050001AA40F21620022102F050F9FA
:102BE00030B903AA40F6C1200C2102F049F918B10E
:102BF0004FF0FF3006B010BD40F26400C2F200009A
:102C00000480002006B010BDF0B581B040F2600134
:102C1000C2F200010E880C2306F003014EF20934C3
:102C200050F8211003EA5603C0F2CA24720748BFC5
:102C30004942C758C6F3811381FB041250F8235050
:102C4000F0054FEA91704FEA925148BF6D428DF8FE
:102C50000010910B40EA82008DF8011091098DF867
:102C600002108DF803006A464FF47470042102F0DC
:102C700007F9E0B9B00648BF7F42A7FB0401FA1785
:102C800002FB0411800F8A0D40EA81008DF80020BC
:102C90008A0B89098DF801208DF802108DF8030048
:102CA0006A464FF47570042102F0EAF820B14FF043
:102CB000FF3001B0F0BD00BF85FB0401800F40EA8A
:102CC0008100010E8DF80010010C8DF80110010A31
:102CD0008DF802108DF803006A464FF476700421D7
:102CE00002F0CEF801B0F0BDB0B582B0054646F2B4
:102CF0006311C0F60001C5F3C10300F00300CC5C12
:102D00000A5C8DF8054046F260148DF80420C5F386
:102D10008112C0F60004895C205C8DF806108DF8E5
:102D20000000E05CA15C8DF801008DF8021001AAA2
:102D300040F22640032102F0A3F850BB6A4640F25D
:102D40002A40032102F09CF818BB45F23660C0F21D
:102D50007600019044F22660C0F266006907009098
:102D60001CD4A80622D4E80505D577208DF80600E6
:102D700067208DF8020001AA4FF48860032102F059
:102D80007FF830B96A4640F23140032102F078F80A
:102D9000B0B14FF0FF3002B0B0BD00BF37208DF8AA
:102DA000040027208DF80000A806DCD557208DF8F8
:102DB000050047208DF80100E805D6D4DBE700BF09
:102DC00040F26000C2F200000580002002B0B0BDF9
:102DD000F0B583B00446B1F5C86F4FF0FF3055D859
:102DE00014F0070252D00846FDF76BFC0021C4F234
:102DF0004831FDF75FFA05460DF1070000F00EFDC2
:102E00009DF8070002384FEA7002072A4FF0FF30A2
:102E10003CD80026C4F240664FF08D41DFE802F056
:102E20001504360A363636100026C4F2C0564FF066
:102E30008C410AE00026C4F240564FF08B4104E07A
:102E40000026C4F2C0464FF08A412846FDF700FA3A
:102E5000074628463146FDF7FBF9FDF748FC0646D4
:102E60003846FDF744FC010A8DF808108DF809007A
:102E7000300A02A98D1C8DF80A00E0078DF80B605E
:102E800006D1A00714D4600722D4002003B0F0BDFF
:102E900002AA4FF4EA70022101F0F2FF38BB4FF4AE
:102EA000927002212A4601F0EBFF00BBE9E700BF68
:102EB00002AA4FF4EC70022101F0E2FFB8B94FF41E
:102EC000947002212A4601F0DBFF80B9DBE700BFE6
:102ED00002AA4FF4EE70022101F0D2FF38B94FF48C
:102EE000967002212A4601F0CBFF0028CDD04FF08A
:102EF000FF3003B0F0BD000080B582B0019040F219
:102F0000B000C2F2000001A901224FF0FF33FEF72A
:102F10000FFE019802B080BD2DE9F04F85B040F260
:102F2000100705460120C2F200070C46ADF8080064
:102F3000D7E9031016460078897C02AB0222FFF71E
:102F40008BFA002840F0C280C820FDF7F1FD002078
:102F50008DF80800D7E9031002AB0078C97B012285
:102F6000FFF77AFA002840F0B180D7E9031002ABEE
:102F7000007849790122FFF76FFA002840F0A68017
:102F8000D7E9031002AB0078897C0122FFF764FACD
:102F9000002840F09B80D7E9031002AB0078C97D80
:102FA0000122FFF759FA002840F09080D7E903107A
:102FB00002AB007809790122FFF74EFA002840F0B1
:102FC00085800C208DF80800D7E9031002AB00784B
:102FD00009790122FFF740FA002877D10F20FDF789
:102FE000A7FD786BF968407A3A698DF80800107887
:102FF000897802AB0122FFF72FFA002866D1786B9F
:10300000F968007A3A698DF808001078497802ABBF
:103010000122FFF721FA002858D1786BD7E9031273
:10302000807A002E18BF40F0E0008DF8080010787C
:10303000897902AB0122FFF70FFA002846D12EB1A1
:10304000786BC07A60F01F0001E000BF18208DF897
:103050000800D7E9031002AB0078C9790122FFF715
:10306000FBF998BB16B1C820FDF762FD40208DF832
:103070000800D7E9031002AB007809790122FFF7B5
:10308000EBF918BB78208DF80800D7E9031002ABE4
:10309000007849790122FFF7DFF9B8B93220FDF74E
:1030A00047FD00208DF80800D7E9031002AB007837
:1030B00049790122FFF7D0F940B9D7E9031002ABF3
:1030C0000078897A0222FFF76DF928B14FF0FF37B7
:1030D000384605B0BDE8F08FBDF808004AF6AB21D0
:1030E00000BA000C4843C0F3C7420021002AC5E9DA
:1030F0000011A960C4E900110192A16044D0C00C84
:1031000000260DF108095FFA80F8D7E903100C22B8
:103110000078C97A4B46FFF745F90028D6D1BDF8AB
:103120000800BDF80C20BDF80A1090FA80FC92FA55
:1031300082FED4E90030A26809BA00EB214002EB1C
:103140002E4103EB2C43A160BDF81010C4E9003000
:10315000BDF81220BDF80E0091FA81FEA96892FA1E
:1031600082FCD5E90032013600BA01EB2C4AF1B2FB
:1031700003EB204002EB2E4B4145C5E9000BC5F89F
:1031800008A0C2D304E000BFD5E9000BD5F808A021
:10319000C117090441EA10410004832200230027DB
:1031A000FCF7C0FFDDF8048000234246FCF7BAFFBD
:1031B00028604FEAEB70000440EA1B414FEA0B40E5
:1031C00083220023FCF7AEFF42460023FCF7AAFF50
:1031D00068604FEAEA70000440EA1A414FEA0A4088
:1031E00083220023FCF79EFF42460023FCF79AFF50
:1031F000A860D4E90006A568C117490141EAD06179
:10320000400142460023FCF78DFF2060F01740018B
:1032100040EAD661700142460023FCF783FF6060FC
:10322000E817400140EAD561680142460023FCF7F7
:1032300079FF4FF480310028C4BF0021CFF6FF7121
:103240000844A060384605B0BDE8F08F90F9001042
:1032500000290DDD002190F90320002A10DD002255
:1032600090F90630002B13DD00201143084370470E
:1032700018D490F9011000291EDD0121EBE700BFF1
:1032800012D490F90420002A1EDD0822E8E700BFCE
:103290000CD490F90730002B1EDD40201143084369
:1032A000704700BF0421D6E72022D9E74FF4807091
:1032B00011430843704700BF18D490F90210002949
:1032C0001EDD0221C7E700BF12D490F90520002AB5
:1032D0001CDD1022C4E700BF0CD490F908000028C0
:1032E0001ADD802011430843704700BF0521B2E773
:1032F0002822B5E74FF4A07011430843704700BF80
:103300004FF0060108BF0721A5E700BF4FF03002CC
:1033100008BF3822A4E700BF4FF4C07008BF4FF4C5
:10332000E0701143084370479CB0FDF743FD002453
:103330000120CDE91744CDE91544129016904FF4C1
:10334000E0104FF4803102251B9012A8CDE9131430
:10335000CDE91951FDF7E0FE20B1EFF3108072B610
:10336000FEE700BF0F20CDE90D054FF48060CDE9E9
:1033700010040DA802210F94FDF7C6FD20B1EFF354
:10338000108072B6FEE700BFFFF794F8FFF7EEF883
:10339000FFF72AF9FEF7A8FF00F0C2F927A002F014
:1033A0002DFE12AC0DAD0CAE4FF4FA70FDF7C0FB64
:1033B00020462946324600F0C5F80028F8D10DF124
:1033C0002E000BA90DF12A02FEF720FF0AA80DF12D
:1033D000260109AAFEF73CFFFEF75CFFFDF768F93E
:1033E0000D9981460846FDF79BF9089012980791C0
:1033F000FDF796F982460C988B46FDF791F98846C1
:10340000002107464846C4F2C821FCF753FFFDF7E8
:1034100087F9DDE9073204900DA0CDE900ABCDE9D5
:103420000278059101F0D8FDBDF92E10BDF92C20D0
:10343000BDF92A3010A001F0CFFDB5E7E5889DE584
:10344000A78BE58C96E68890E58A9FEFBC810D00FE
:10345000583A252E3166C2B009593A252E3166C236
:10346000B0095A3A252E3166C2B009252E3266C2FD
:10347000B0430D0A0000000061583A2568640961F4
:10348000593A25686409615A3A2568640D0A0000B2
:1034900070470000F0B581B040F21005C2F200059F
:1034A00095F8301021B10024204601B0F0BD00BFD6
:1034B000A97D69B300F0FE0739402E7FCC1B95F83B
:1034C000200018BF4FF0FF34002F297708BF0028D5
:1034D00024D0687F78B901208DF80200D5E9031067
:1034E0000DF102030078C97B0122FEF7B5FF10B988
:1034F0009DF802006877002FD6D000F0C5FC0028A8
:103500001CBF2E774FF0FF34204601B0F0BD00BF46
:103510004FF0FF34204601B0F0BD00BF00208DF811
:103520000300D5E903100DF103030078C97B0122E4
:10353000FEF792FF0028B7D19DF803006877204678
:1035400001B0F0BD2DE9F04F8FB005460DF12A0016
:1035500014460E460DF1290700900DF132000BA91B
:1035600006AA0EAB0197FFF7CDF918B101200FB0F5
:10357000BDE8F08FBDF82A00C00503D402200FB0CB
:10358000BDE8F08F06980594079C0496DDE908676E
:10359000FDF78EF84FF04251FCF75AFE8046204668
:1035A000FDF786F84FF04251FCF752FE8346304655
:1035B000FDF77EF84FF04251FCF74AFE04463846CC
:1035C000FDF776F84FF04251FCF742FE814658462F
:1035D0004FF04041FCF73CFE824640464146CDF864
:1035E0000C80FCF7DDFD21468046FCF731FE0646E7
:1035F00050464946FCF72CFE3146FCF7D1FDFDF75D
:103600008FF802F0E5F94AF26663C4F24C034FF01A
:103610006632FCF734FFFDF796F828602046214615
:10362000FCF7BEFD064640465946FCF711FE05462E
:1036300030464946FCF70CFE2946FCF7B1FDFDF784
:103640006FF805460F4620463146FCF701FE064658
:1036500050465946FCF7FCFD3146FCF7F3FD4FF0B0
:103660007E51FCF79DFDFDF75BF802460B462846B0
:10367000394602F0F5FB4AF26668C4F24C084FF096
:1036800066324346FCF7FBFEFDF75DF80499039FA5
:10369000086038464946FCF7DBFD0546584621469A
:1036A000FCF7D6FD2946FCF77BFD0146FCF778FDCB
:1036B000FDF736F805468A4658465946FCF7C8FDD8
:1036C000064638463946FCF7C3FD3146FCF768FD2F
:1036D000064620462146FCF7BBFD01463046FCF776
:1036E000B1FD044648464946FCF7B2FD0146204676
:1036F000FCF7A8FDFDF714F802460B462846514694
:1037000002F0AEFB4FF066324346FCF7B8FEFDF721
:103710001AF80599086000200FB0BDE8F08F00008E
:1037200070B582B0FEF742FB00F0B8F810B10A2085
:1037300002B070BD782001F02DFB000602D0012000
:1037400002B070BD40F21004C2F2000494F83000E0
:1037500040B1642001F07AFA000621D0032002B0C3
:1037600070BD00BFA07D98B3617F257F00F0780613
:10377000267779B901208DF80700D4E903100DF1FF
:1037800007030078C97B0122FEF766FE10B99DF899
:103790000700607700F078FBC0B1257718E000BF24
:1037A000FFF7A4F8000603D0042002B070BD00BFEC
:1037B00040F21000C2F20000FFF748FDFFF794FA54
:1037C000000609D0052002B070BD00BF782EC0D021
:1037D000022002B070BD00BF40F27310FEF736FF4A
:1037E000000603D0062002B070BD00BF6420FFF7C2
:1037F000D3F9000602D0072002B070BD01F072FBC1
:1038000010B1082002B070BD012001F061F9C0B212
:10381000002818BF092002B070BD000040F210015E
:10382000C2F200014A7D032A84BF4FF0FF30704787
:1038300040F20243D200C1F20803D3400370C97FB3
:10384000002904BF0020704740F60401C2F21001B5
:10385000D14001700020704740F21002C2F2000215
:10386000517D032984BF4FF0FF30704707A3D27FFB
:1038700033F81130002A038004BF0020704705A2EE
:1038800032F8111001800020704700BF00409C1FDB
:10389000001000080020CE0F0008000410B582B010
:1038A00040F210048020C2F200048DF80100D4E937
:1038B00003100DF101030078897C0122FEF7CCFD95
:1038C000C8B96420FDF734F900208DF80100D4E96F
:1038D00003100DF101030078897C0122FEF7BCFD85
:1038E00048B9D4E903100DF101030078897D06225F
:1038F000FEF758FD20B14FF0FF34204602B010BD56
:103900009DF806209DF802009DF80410042303EAA8
:10391000820261F3410200F00100111806D0012972
:103920002DD0022920D100202AE000BFD4E90310C5
:103930000DF101030078C9780122FEF733FD00285C
:10394000D9D19DF8010000F00F00042814D0002800
:10395000E9D146F6AD50C0F6000002F04FFB4FF043
:10396000FF34204602B010BD2CA001F035FB4FF013
:10397000FF34204602B010BD32A002F03FFB012010
:10398000E0774FF6FF706083FF202077A0774FF03D
:10399000FF3060610020C4E90800A062A085C4F87F
:1039A0002F0084F8330018208DF80700D4E90310A5
:1039B000012200788979227684F82E200DF1070300
:1039C0000122FEF749FD002895D19DF80700C008A7
:1039D0002075022000F0B6FF00288CD12A2001F0CB
:1039E000E7F800287FF487AF322001F02FF9002894
:1039F0007FF481AF0020FFF74DFD00287FF47BAFFF
:103A0000002000F0EDFF00287FF475AF00200024B7
:103A100001F0C0F9204602B010BD00BF556E7375AD
:103A200070706F7274656420736F6674776172650D
:103A30002070726F64756374207265762025642E21
:103A40000A00000048616C662073656E73697469D2
:103A500076697479207061727420666F756E642E59
:103A6000000000002DE9F04F8BB0044600294FF014
:103A7000FF3000F0928040F21009C2F2000988463F
:103A800099F83110002940F08880002CCDE90132EE
:103A900068D04FF0000ACDE903481FFA8AF6A4EB7C
:103AA000060B99F81600BBF1100FA8BF4FF0100BD2
:103AB000002865D0D9F810005FFA8AF11FFA8BF35D
:103AC00042895F189AFA8AF197424FEA11410593A9
:103AD000ADF82A1054D8D9F80C100078097E0222CB
:103AE0000DF12A03FEF7B8FC002849D1D9E90310EB
:103AF00008EB06040078497D5FFA8BF842462346BE
:103B00004D46FEF7A9FCD8BBA87DC8B328692B4653
:103B10004289310A97428DF82A108DF82BA02FD8B0
:103B2000D9680078097E02220DF12A03FEF794FC81
:103B300030BBD9E903100DF11A050078497D4246E2
:103B40002B46FEF72FFCD8B9059A20462946FCF7EC
:103B50001AFB28BBDA44039C1FFA8AF0DDF81080B8
:103B6000A0429AD302980DF12A0340BAADF82A0078
:103B7000D9E9031002220078897EFEF76DFC28B196
:103B80004FF0FF300BB0BDE8F08F00BF012089F887
:103B900031000198A9F8320000200BB0BDE8F08F89
:103BA0006FF001000BB0BDE8F08F000070B584B07D
:103BB000282800F2E08040F2100504460028C2F2F6
:103BC000000543D095F82F0001281FD0A87F95F855
:103BD0002E103222002808BF30228DF80A2039B179
:103BE0006FF04D01002808BF6FF04F018DF80A10EB
:103BF000D5E903100DF10A030078097D01220126A1
:103C0000FEF72AFC002808BF85F82F602020012C31
:103C10008DF8070052D1A87D00218DF8081090B1D1
:103C2000E87D062106288DF80B100CD0D5E903108D
:103C30000DF10B03007889780122FEF70DFC10B915
:103C40009DF80B00E875072089E000BF95F82F006C
:103C500000B3A87F95F82E100246002818BF012255
:103C600052008DF8092039B16FF07D01002808BF9E
:103C70006FF07F018DF80910D5E903100DF10903EC
:103C80000078097D0122FEF7E7FB002804BF002031
:103C900085F82F004FF4E060ADF80700D5E9031078
:103CA0000DF107030078897C0222FEF7D5FB00287E
:103CB00061D1002085F8200004B070BD052C19D812
:103CC000A87D01218DF8081088B1E87D062106281D
:103CD0008DF80C100BD0D5E9031003AB0078897870
:103CE0000122FEF7B9FB10B99DF80C00E8754720DA
:103CF00035E000BF142C19D8A87D02218DF80810DA
:103D000090B1E87D052105288DF80D100CD0D5E97E
:103D100003100DF10D03007889780122FEF79CFB5A
:103D200010B99DF80D00E875872018E0A87D0321E3
:103D30008DF8081090B1E87D042104288DF80E104C
:103D40000CD0D5E903100DF10E030078897801221B
:103D5000FEF782FB10B99DF80E00E875C7208DF8BC
:103D60000800D5E903100DF107030078897C0222D1
:103D7000FEF772FB20B14FF0FF3004B070BD00BF02
:103D800095F830100820A875002000294FF0010197
:103D9000287685F8201001D004B070BD697F28779F
:103DA00079B901208DF80F00D5E903100DF10F034B
:103DB0000078C97B0122FEF74FFB10B99DF80F0078
:103DC0006877002004B070BD2DE9F04182B040F268
:103DD0001007C2F200070E4697F83010054600297A
:103DE0004FF0FF3044D0B97D002941D0D7E903100E
:103DF00014460078897A0DF106030222FEF7D2FA02
:103E000020B14FF0FF3002B0BDE8F081BDF80610E0
:103E100008BAB5EB104F07D9002020704FF0FF30E3
:103E200002B0BDE8F08100BF386991FA91F842888C
:103E3000B8EB520F0ED9F9680078497C0DF10603F2
:103E40000122FEF7AFFA0028DBD19DF80600C0067C
:103E500012D43869F9680078C97AEAB23346FEF7B5
:103E6000A1FA0028CDD1B8FBF5F001382070002070
:103E700002B0BDE8F08100BF00F006F86FF001006D
:103E800002B0BDE8F081000010B582B040F210042D
:103E9000C2F20004A07D00B300208DF80700D4E931
:103EA00003100DF107030078C97B0122FEF7D4FA55
:103EB00098B9D4E903100DF107030078497901227C
:103EC000FEF7CAFA48B9D4E903100DF107030078E8
:103ED00009790122FEF7C0FA20B14FF0FF3002B09D
:103EE00010BD00BF94F83000002845D00C208DF89C
:103EF0000700D4E903100DF10703007809790122C6
:103F0000FEF7AAFA0028E8D13220FCF711FEA07DC6
:103F10000DF10703C0076FF01F0008BF6FF03F00EF
:103F20008DF80700D4E90310012200780979FEF723
:103F300093FA0028D1D1607F0DF10703002818BF44
:103F4000012040008DF80700D4E903100122007819
:103F5000C97BFEF781FA0028BFD100208DF8070049
:103F6000D4E903100DF10703007849790122FEF727
:103F700073FA0028B1D145E004208DF80700D4E998
:103F800003100DF10703007809790122FEF764FAA6
:103F90000028A2D1A07DA17FC0074FF0600008BF1C
:103FA0004020002918BF40208DF80700D4E90310F5
:103FB0000DF10703007809790122FEF74DFA002878
:103FC0008BD13220FCF7B4FD607F0DF10703002890
:103FD00018BF01208DF80700D4E9031001220078F2
:103FE000C97BFEF739FA00287FF477AFD4E90310D4
:103FF00004F11C03007849790122FEF72DFA00280C
:104000007FF46BAF002002B010BD00002DE9F04F2F
:1040100093B040F2100AC2F2000A9AF83040894682
:10402000054614B1002000F053FD9AF8140003284F
:104030000CD8FA22DFE800F0140212364FF4FA72BC
:104040009AF815000B9203280FD932E000229AF853
:1040500015000B92032808D92BE000BF4FF47A72A9
:104060009AF815000B92032823D80FF6C8029AF885
:104070001F3002EB80020FF6AC01002B08BF01EBF2
:10408000800210680A909AF81700062817D90020B5
:104090000990002007900020069000200590002045
:1040A00028E000BF4FF4FA629AF815000B9203283B
:1040B000DBD900200A909AF817000628E7D800F00C
:1040C0007F00411EB1FA81F1490909910621C140E1
:1040D00001F0010107910E21C14001F0010106919B
:1040E0001E21C14001F0010105913E2121FA00F09D
:1040F00000F001000490BAF81A809AF816709AF845
:104100001C60284649460022FEF706FF48B12846B3
:10411000494600224FF0000BFEF7FEFE002840F05B
:104120004C830FA80CA901220895FEF7F5FE48B1B3
:104130000FA80CA90122FEF7EFFE18B14FF0000BFB
:104140003BE300BFDAF8100012AB00780D21042227
:104150000397CDE90164FEF725F9CDF8008058B347
:10416000D9F800000C99401A48BF4042FCF7A0FA69
:104170004FF05E51FCF76CF8044628460021FCF72E
:1041800089FA002846D120462946FCF793F80021F9
:10419000CBF68071FCF704F845F6294120F0004089
:1041A000C3F60F61FCF74CFA00280CBF4FF0010872
:1041B0004FF0000842E000BF9DF848009DF84B60BA
:1041C0009DF849201C259DF84A3005EAD000C6F329
:1041D0000111091805EAD200C6F3810200EB0207BB
:1041E00005EAD30B06F0030400F0D680B1F1010814
:1041F00000F0E68018F00302A1F1020000F0EA806E
:10420000012A40F0F1804FF6AD75C3F6B3658046E4
:10421000F9E000BF49F69A11C3F699612046FCF710
:104220001DFA43F233310546C3F673712046FCF79D
:1042300023FA55EA000818BF4FF00108D9F8040026
:104240000D99401A48BF4042FCF732FA4FF05E51D8
:10425000FBF7FEFF054630460021FCF71BFAA8B924
:1042600028463146FCF726F80021CBF68071FBF793
:1042700097FF45F6294120F00040C3F60F61FCF797
:10428000DFF9002808BF08F1020815E043F23331D6
:10429000C3F67371284608F10204FCF7EDF949F6FC
:1042A0009A110028C3F69961284618BFA046FCF76A
:1042B000D5F9002818BFA046D9F808000E99401A71
:1042C00048BF4042FCF7F4F94FF05E51FBF7C0FFE6
:1042D000044638460021FCF7DDF9A8B920463946E6
:1042E000FBF7E8FF0021CBF68071FBF759FF45F69D
:1042F000294120F00040C3F60F61FCF7A1F9002826
:1043000008BF08F1040815E043F23331C3F67371B6
:10431000204608F10405FCF7AFF949F69A11002888
:10432000C3F69961204618BFA846FCF797F9002804
:1043300018BFA846DAF81000039F0078089C12AB5B
:104340000D210322FEF72EF810B1072629E200BF47
:1043500020680F999DF84820401A48BF40429DF8B8
:1043600049709DF84A9002F01F05FCF7A1F94FF043
:104370005E51FBF76DFF044685B16E1E26D016F028
:104380000301A5F102002BD0012977D143F233318B
:10439000C4F2D11106467FE000254EE00021C4F2B0
:1043A00020112046FCF75AF900210546C4F2D2211B
:1043B0002046FCF761F955EA000618BF012696E091
:1043C00041F27B45C3F6AE6537E000BF0021C4F281
:1043D000C81178E041F27B45C3F6AE6513E000BF3B
:1043E0000021C4F2C81157E047F25E25A1F104088C
:1043F000C3F6C065022A08BFA1F1030804BF41F655
:104400006365C3F6BA65032817D345F61D26C3F6C0
:10441000847600BF28463146FBF71AFF3146FBF78A
:1044200017FF3146FBF714FF3146FBF711FFA8F1E8
:1044300004085FEA08610546ECD10BEB04087FB184
:104440007C1E0FD014F00301A7F1020010D0012947
:1044500040F088804FF6AD76C3F6B36604468EE032
:104460000026A4E041F27B46C3F6AE669FE000BFA3
:1044700041F27B46C3F6AE6681E000BF02294EF2F0
:104480009A31A5F10406C4F2E41108BFEE1E04BF80
:104490004DF2BD21C4F2DA11032814D34EF2543583
:1044A000C3F6857508462946FBF7D2FE2946FBF779
:1044B000CFFE2946FBF7CCFE2946FBF7C9FE043E9A
:1044C00031060146EED12046FBF7F4FE0021CBF683
:1044D0008071FBF765FE45F6294120F00040C3F6E8
:1044E0000F61FCF7ADF800280CBF012600260898E4
:1044F0001099406807F01F05401A48BF4042FCF77A
:10450000D7F84FF05E51FBF7A3FE044675B16F1E5E
:1045100020D017F00301A5F102001FD0012969D1B5
:1045200043F23331C4F2D111074671E00021C4F2E5
:10453000D2212046B51CFCF79FF800210028C4F2C8
:104540002011204618BF2E46FCF788F8002818BF17
:104550002E4687E00021C4F2C81170E00021C4F2A9
:10456000C81155E047F25E263C1FC3F6C06602291B
:1045700008BFFC1E04BF41F66366C3F6BA66032893
:1045800015D345F61D27C3F6847700BF304639465C
:10459000FBF75EFE3946FBF75BFE3946FBF758FE3C
:1045A0003946FBF755FE043C21060646EED1B8F12C
:1045B000000F11D0B8F1010410D014F00301A8F1DC
:1045C000020011D0012940F08B804FF6AD77C3F681
:1045D000B367044693E000BF0027C1E541F27B4783
:1045E000C3F6AE67BCE500BF41F27B47C3F6AE67DA
:1045F00085E000BF02294EF29A31A5F10407C4F20A
:10460000E41108BFEF1E04BF4DF2BD21C4F2DA1160
:10461000032814D34EF25435C3F68575084629464F
:10462000FBF716FE2946FBF713FE2946FBF710FEA3
:104630002946FBF70DFE043F39060146EED1204620
:10464000FBF738FE0021CBF68071FBF7A9FD45F69C
:10465000294120F00040C3F60F61FBF7F1FF00286D
:1046600008BF0236DDF820B01199DBF8080009F028
:104670001F05401A48BF4042FCF71AF84FF05E5140
:10468000FBF7E6FD04467DB16F1E21D017F0030154
:10469000A5F1020020D001294AD143F23331C4F2FE
:1046A000D111074652E000BF0021C4F2D2212046BA
:1046B000351DFBF7E1FF00210028C4F22011204640
:1046C00018BF2E46FBF7CAFF002818BF2E4667E02A
:1046D0000021C4F2C81150E00021C4F2C81135E035
:1046E00047F25E27A8F10404C3F6C067022908BF99
:1046F000A8F1030404BF41F66367C3F6BA67032851
:10470000FFF42EAD45F61D28C3F6847838464146A1
:10471000FBF79EFD4146FBF79BFD4146FBF798FDED
:104720004146FBF795FD043C21060746EED117E50F
:1047300002294EF29A31A5F10407C4F2E41108BF30
:10474000EF1E04BF4DF2BD21C4F2DA11032814D3C9
:104750004EF25435C3F6857508462946FBF778FDB9
:104760002946FBF775FD2946FBF772FD2946FBF745
:104770006FFD043F39060146EED12046FBF79AFD56
:104780000021CBF68071FBF70BFD45F6294120F0A7
:104790000040C3F60F61FBF753FF002808BF043643
:1047A000039FB6FA86F04FEA501BB8F1000F08BF1E
:1047B0000BF1020B029CDDE900864FF6FF70AAF8B0
:1047C0001A00FF200B998AF81C004FF0FF30CAF83E
:1047D00014000120B1F57A7F8AF8180006DAFA2968
:1047E0000AD0B1F5FA7F1FD1082008E006D0B1F554
:1047F000FA6F19D1182002E0002000E010208DF897
:104800004800DAE9031012AB007889790122FDF73C
:1048100023FE20B99DF84800C0088AF814009AF8D1
:104820001600002800F06C800A98C0B202384FEAE7
:104830007000072838D8DFE800F0050D3717373744
:10484000372100BF00208DF848009AF815108142EA
:104850001CD129E008208DF8480001209AF8151095
:10486000814213D120E000BF10208DF848000220C3
:104870009AF81510814209D116E000BF18208DF872
:10488000480003209AF8151081420DD0DAE9031090
:1048900012AB0078C9790122FDF7DEFD20B99DF841
:1048A0004800C0088AF815009AF8160040B3099825
:1048B00010B1012011E000BF079808B102200CE000
:1048C000069808B1032008E0059808B1042004E028
:1048D000049800280CBF062005209AF817108DF8C0
:1048E000480081420CD0DAE9031012AB00788978D5
:1048F0000122FDF7B1FD18B99DF848008AF81700AC
:10490000404600F0A3F9384600F044FA3046FEF77E
:10491000C1FD14B1012000F0DBF8584613B0BDE82A
:10492000F08F00BF0200000004000000080000003B
:10493000100000000400000008000000100000004B
:104940002000000010B582B040F21004C2F2000452
:10495000A17D00292DD002384FEA700107294FF0C0
:10496000FF303AD8DFE801F0040C39143939392A1C
:1049700000208DF80700617D814226D00FE000BF46
:1049800008208DF807000120617D81421DD006E0DE
:1049900010208DF807000220617D814215D0D4E9F6
:1049A00003100DF107030078C9790122FDF754FDCA
:1049B00070B14FF0FF3002B010BD00BF18208DF86D
:1049C00007000320617D8142E9D1002002B010BDC3
:1049D0009DF80700C0086075002002B010BD0000FF
:1049E000B0B582B040F21005C2F20005A97F814245
:1049F00002D1002002B0B0BD0446D5E903100DF18C
:104A00000703007809790122FDF7CCFC94B3002854
:104A100046D19DF807000DF1070300F0DF008DF887
:104A20000700D5E90310012200780979FDF714FD8C
:104A3000B0BB0320FCF77CF895F82E1095F82F20DA
:104A40006FF07D00002908BF02208DF807001AB121
:104A500040F030008DF80700D5E903100DF1070391
:104A60000078097D0122FDF7F7FCC8B9AC7700207A
:104A700002B0B0BDA0B99DF80700A97D00F0DF002D
:104A800001F0010140EA41108DF80700D5E903105B
:104A90000DF10703007809790122FDF7DDFC18B15B
:104AA0004FF0FF3002B0B0BD0320FCF741F895F89D
:104AB0002E0095F82F10024600281CBF01226FF02F
:104AC0007F00D20100298DF80720C1D1C4E7000082
:104AD000B0B582B040F21004C2F2000494F8301075
:104AE00081425DD0D0B394F8310000285CD009B980
:104AF000A07D78B100208DF80500D4E903100DF1F8
:104B000005030078C97B0122FDF7A6FC10B99DF8CA
:104B10000500607700200025FFF762FF608E00F03F
:104B200095F820698DF80450007801AB232101220B
:104B30000125FDF791FC02208DF80600D4E9031051
:104B40000DF106030078C97B012284F83050FDF78F
:104B500083FC18BB9DF8060060771FE009B9A07DB3
:104B600078B100208DF80700D4E903100DF1070398
:104B70000078C97B0122FDF76FFC10B99DF8070092
:104B80006077207F21698DF80400087801AB23212C
:104B90000122FDF761FC002084F83000FFF774F972
:104BA000002002B0B0BD00BF4FF0FF3002B0B0BD7A
:104BB00010B582B040F21004C2F20004A17DD1B35E
:104BC000BC2807D30120E17D8DF8070081423AD04F
:104BD00027E000BF622807D30220E17D8DF807009F
:104BE000814230D01DE000BF2A2807D30320E17D99
:104BF0008DF80700814226D013E000BF142807D3A8
:104C00000420E17D8DF8070081421CD009E000BF3F
:104C10000A2834BF06200520E17D8DF80700814277
:104C200011D0D4E903100DF107030078897801222F
:104C3000FDF712FC20B14FF0FF3002B010BD00BFF5
:104C40009DF80700E075002002B010BD70B582B07D
:104C500040F21005C2F20005A97D044600294FF07C
:104C6000FF3000F0948095F83010002940F08F80DC
:104C700095F8200000283ED0601E80B2272805D875
:104C8000E0B2FEF793FF002002B070BD95F82F0050
:104C900000B3A87F95F82E100246002818BF012205
:104CA00052008DF8062039B16FF07D01002808BF51
:104CB0006FF07F018DF80610D5E903100DF10603A2
:104CC0000078097D0122FDF7C7FB002804BF002002
:104CD00085F82F004FF4E060ADF80400D5E903102B
:104CE00001AB0078897C0222FDF7B6FB002804BFE7
:104CF000002085F820004FF47A76B4F57A7F28BF3B
:104D00003446042C98BF0424B6FBF4F00DF10303E1
:104D100001388DF80300D5E90310012200784978A5
:104D2000FDF79AFB20B14FF0FF3002B070BD00BF1D
:104D30009DF80300AA7D411CB6FBF1F169832AB3FB
:104D4000012801D801200FE0042801D802200BE03F
:104D50000A2801D8032007E0182801D8042003E01E
:104D600031288CBF06200520E97D8DF8070081429F
:104D70000CD0D5E903100DF10703007889780122E2
:104D8000FDF76AFB10B99DF80700E875002002B036
:104D900070BD0000B0B582B0044610F0700F01D0B5
:104DA000012003E0002C0CBF4020002040F2100541
:104DB000C2F200058DF80600D5E903100DF10603D7
:104DC0000078897C0122FDF747FBF8B99DF80600C1
:104DD000A10600F0BF024FF0040020EA141058BFF3
:104DE0000230C4F30011084480F00100210758BFCD
:104DF00038308DF80600D5E903102A760078C97C92
:104E00000DF106030122FDF727FB38B10020A8753C
:104E10004FF0FF34204602B0B0BD00BF14F0F70FD2
:104E200023D095F82F0000B3A87F95F82E100246E6
:104E3000002818BF012252008DF8072039B16FF009
:104E40007D01002808BF6FF07F018DF80710D5E9BC
:104E500003100DF107030078097D0122FDF7FCFA2C
:104E6000002804BF002085F82F00AC7500243220F4
:104E700085F82040FBF75CFE204602B0B0BD000084
:104E800070B582B00D4601464FF0FF3042B340F29C
:104E90001006C2F200061446B27D0AB330694ABA5F
:104EA000C9B2438929449942ADF8062008D8F1686F
:104EB0000078097E0DF106030222FDF7CDFA18B144
:104EC0004FF0FF3002B070BDD6E90310EAB20078AF
:104ED000497D2346FDF7C0FA002818BF4FF0FF3088
:104EE00002B070BDF0B587B004A801A9FFF78EF835
:104EF000032811D140F21007C2F20007387D0328C1
:104F00000ED0022812D0002401280CBFC4F2832442
:104F1000C4F203340EE000BF012007B0F0BD00BFB3
:104F200043F23334C4F2831404E000BF43F2333459
:104F3000C4F20324DDE90406069DFBF7B9FB014634
:104F40002046FBF785F9FBF7D2FB04903046FBF7D0
:104F5000AFFB01462046FBF77BF9FBF7C8FB05904A
:104F60002846FBF7A5FB01462046FBF771F9FBF746
:104F7000BEFB069004A8FDF747FE787D03280BD8FA
:104F800011A2FB7F02EB80020BA1002B08BF01EBFB
:104F90008002106801E000BF002001AB0ECB41434E
:104FA000019102FB00F15843039001A80291FDF723
:104FB00093FD002007B0F0BD004000009C1F0000E2
:104FC000001000000008000000200000CE0F0000CC
:104FD00000080000000400000FB4054B10B503A941
:104FE000044A029800F05CF910BC5DF814FB000064
:104FF000F92E000800000020490050EAC12018BF27
:1050000004204A0D18BF40F0010040F2FF72B2EBDD
:10501000515F08BF40F00200012808BF052070471B
:105020002DE9F0414F1E00EBC7010446D1E9000114
:1050300015461E4637F006020DD02A463346FBF7CA
:105040001EFA7F1E04EBC703D3E90023FBF770F9B8
:1050500037F00602F1D1022F25D0042F13D0062FEE
:1050600018BFBDE8F0812A463346FBF708FAD4E9B9
:105070000A23FBF75DF92A463346FBF700FAD4E929
:105080000823FBF755F92A463346FBF7F8F9D4E92C
:105090000623FBF74DF92A463346FBF7F0F9D4E92E
:1050A0000423FBF745F92A463346FBF7E8F9D4E930
:1050B0000223FBF73DF92A463346FBF7E0F9D4E932
:1050C0000023BDE8F041FBF733B90122FBF753BCE5
:1050D000FBF72EB90022134610461146FBF741BAE2
:1050E000024A00201107FBF746BC000001FDFFFF4C
:1050F00002E008C8121F08C1002AFAD170477047A1
:10510000002001E001C1121F002AFBD170470000FE
:105110000149086070470000040000202DE9FF5F8E
:1051200082B00021DDE90430020DDDF840B0034318
:1051300018D044F61050A2F2FF32424315141198D1
:1051400001281FD0A5EB0B00401C5FEA000A4FF0BE
:1051500000064E4FDFF83891B046504615D5CAF1DB
:10516000000413E0119801244AA3012801D16FEA39
:105170000B010298119AC0E90031C0E9024206B061
:10518000BDE8F09FCBF10000DFE704460021404A74
:10519000491842EB0450CDE9001012E0E00707D0B7
:1051A00032463B4640464946FBF769F98046894608
:1051B00032463B4610461946FBF761F906460F4654
:1051C0006410002CEAD1DDE90401DDE90023BAF125
:1051D000000F06DAFBF753F942464B46FBF74FF94F
:1051E00005E0FBF7BEF942464B46FBF7BAF9044629
:1051F0000E460022284BFBF705FC03D84FF0FF308A
:10520000014607E00022254B20463146FBF790F887
:10521000FBF7C8FB102409E0002C0ADB0A2200235C
:10522000FBF7C3FA039B30321A55641E50EA0102A1
:10523000F2D1641C039AC4F111031444119A012A97
:1052400003D0012208430DD10AE0084304D0002016
:105250004FF0110B119072E7A3EB0B056D1E0DE0E3
:105260005B4504DD4FF0000205F1010504E003DABF
:105270004FF00002A5F10105002AECD00298119927
:10528000C0E90231C0E9004579E7000000001440A0
:105290000000F03F300000000000F0430000E03F5D
:1052A0002DE9FF4F95B09B468946064600250FE243
:1052B000252877D100242746F84A0121059400E0EB
:1052C000044316F8013F203B01FA03F01042F7D1E6
:1052D00030782A2811D06FF02F033078A0F13002F7
:1052E000092A16D8059A44F0020402EB820203EB65
:1052F00042021044761C0590EFE759F8042B059202
:10530000002A03DA504244F40054059044F00204A9
:10531000761C30782E2816D116F8010F44F00404BC
:105320002A280DD06FF02F023078A0F13003092B1E
:1053300009D807EB870302EB4303C718761CF3E792
:1053400059F8047B761C30786C280FD006DC4C288A
:1053500017D068280DD06A2814D104E0742810D022
:105360007A280FD10DE044F400140AE044F48014CC
:1053700001E044F440147278824202D104F58014B2
:10538000761C761C307866280BD013DC582877D032
:1053900009DC002875D04528F6D04628F4D04728E7
:1053A0001AD19DE118E0632835D0642879D06528AA
:1053B00012D195E1702873D008DC6728F1D06928F4
:1053C0006FD06E280DD06F2806D1B5E073282CD091
:1053D000752875D0782874D05A46179990476D1C57
:1053E00075E1C4F30250022809D003280DD0D9F882
:1053F000001004280DD00D6009F1040967E1D9F807
:105400000010EA17C1E90052F6E7D9F800100D8044
:10541000F2E70D70F0E719F8041B8DF8001000207A
:105420008DF80100EA46012003E059F804AB4FF083
:10543000FF3061074FF0000102D40DE008F10101D7
:105440008846B9420FDA8045F8DB1AF808100029BF
:10545000F4D108E008F1010188468142FADB1AF82C
:1054600008100029F6D105985B46A0EB08072146F5
:105470003846179A00F094FA284400EB080507E034
:105480004DE029E10DE01AF8010B5A4617999047B3
:10549000B8F10108F7D25B4621463846179A13E166
:1054A00042E00A220092C4F302524FF0000A022A9C
:1054B00008D059F804CB032A4FEAEC710AD00DE06A
:1054C00029E02AE009F1070121F00702F2E802C110
:1054D000914609E00FFA8CFC4FEAEC71042A03D1E3
:1054E0004FFA8CFC4FEAEC71002907DA0A460021DA
:1054F000DCF1000C61EB02012D2202E0220504D553
:105500002B228DF80420012203E0E20701D02022A3
:10551000F7E7904659E00A2102E010220DE0102141
:105520004FF0000A00910BE010224FF0000A44F007
:1055300004040827009203E008224FF0000A0092BA
:10554000C4F30252022A05D059F804CB0021032AE1
:1055500008D009E009F1070121F00702F2E802C1D1
:10556000914605E01FFA8CFC042A01D10CF0FF0CD7
:105570004FF00008220728D5702806D0009B83F042
:10558000100353EA0A0305D00EE040228DF80420F0
:10559000012208E05CEA010206D030228DF80420E6
:1055A0008DF8050002229046009B83F0080353EA21
:1055B0000A030AD15CEA010201D1620705D5302253
:1055C0008DF804204FF001087F1E582804D034A025
:1055D00003900EA802900DE036A0F9E7534660460E
:1055E000009AFBF7E2F884460398825C0298401E1A
:1055F000029002705CEA0100F0D1029806A9081A34
:1056000000F1200A600702D524F4803400E001276D
:10561000574502DDA7EB0A0000E0002000EB0A017D
:10562000009005984144401A0590E00306D45B467B
:105630002146179A059800F0B3F90544002706E0C3
:1056400001A85A46C05D179990476D1C7F1C4745BD
:10565000F6DBE0030CD55B462146179A059800F06F
:105660009FF9054404E030205A46179990476D1C75
:105670000099481E00900029F5DC08E00298029984
:105680005A460078491C0291179990476D1CBAF14F
:105690000001AAF1010AF1DC65E10000092801001E
:1056A0003031323334353637383961626364656698
:1056B000000000003031323334353637383941425A
:1056C000434445460000000000F058F90544761CAC
:1056D000307800287FF4ECAD19B02846BDE8F08F93
:1056E000620700D4062709F1070222F0070CFCE844
:1056F0000223E14603F000485FEA080C02D00FF2F3
:10570000702C0DE05FEA045C02D50FF2682C07E014
:105710005FEAC47C02D00FF2602C01E0AFF2700CA3
:105720004FF0FF3823F00043CDF850C065280CD06F
:1057300006DC452809D046281DD047283DD13DE04C
:10574000662818D067287ED138E00021112F01DBB0
:10575000112000E0781CCDE9000106A90EA8FFF792
:10576000DDFCDDE90F010E9A03910021009207F1A3
:10577000010A04914DE04FF000400097CDE901107F
:1057800006A90EA8FFF7CAFCDDE90F0203920E9BE3
:1057900011990022DDF80CA00093049211B9791C34
:1057A00000EB010AB7EB0A0004D4C0F1FF3007F1A7
:1057B000010A0490AAEB0700019044E0012F00DAEF
:1057C00001270021112F01DD112000E03846CDE92D
:1057D000000106A90EA8FFF7A1FCDDE90F010E9A52
:1057E0000391002104910092BA4621070CD4039939
:1057F000514500DA8A46BAF1010F05DD009AAAF197
:105800000101515C302908D0B84202DA10F1040FCE
:1058100006DA0121CDE9011015E0AAF10101E9E75D
:10582000002805DC049901440491AAEB000102E080
:10583000411C514500DD8A460499401A401C0190E4
:105840004FF000400290200704D40198504501DB3E
:10585000CDF8048000208DF84F0002980DF14F071D
:10586000B0F1004F25D02B200E9002984FF0020887
:1058700000280CDA404202902D200E9007E00A2109
:105880000298FAF77CFF3031029007F8011DB8F159
:105890000001A8F10108F2DC02980028EFD1791E7E
:1058A0000E980870307800F0200040F0450007F8AE
:1058B000020D12A8C01B00F107081498007800B16F
:1058C000012000EB0A01019801EBE07105984144C9
:1058D000401A401E0590E00306D45B462146179A05
:1058E000059800F05DF805441498007818B15A4600
:1058F000179990476D1CE00324D55B462146179A03
:10590000059800F04DF805441CE00498002807DBDA
:10591000DDE90301884203DD0098405C179901E04E
:10592000179930205A469047049805F10105401C0C
:1059300004900198401E019004D12E205A461799D8
:1059400090476D1CBAF10001AAF1010ADDDC05E007
:1059500017F8010B5A46179990476D1CB8F10001D2
:10596000A8F10108F4DC5B462146179A0598ABE6DE
:105970002D0000002B000000200000002DE9F04168
:10598000044600251E461746880404D405E039461F
:105990002020B0476D1C641EF9D52846BDE8F08173
:1059A0002DE9F041044600251E469046C80301D566
:1059B000302700E02027880404D505E0414638461A
:1059C000B0476D1C641EF9D52846BDE8F081000083
:1059D0002DE9F04D8D4F21F0004A86B005460C466A
:1059E000BA452ADBAAEB070028430AD0884882453B
:1059F00001DC1AD1CDB106B02846BDE8F04DFFF765
:105A000064BB844A844B2846FAF739FD07460E46A4
:105A1000824A834B28462146FAF731FD06B03A46C2
:105A20003346BDE8F04DFAF783BC0120FFF770FB69
:105A300006B0BDE8F04DFFF74DBB7A48824542DA2B
:105A4000BAF1795F0BDA2846FFF7D6FA042808BFC7
:105A5000FFF746FB284606B02146BDE8F08D2A46F2
:105A60000B461046FAF70BFD834602466E480E467B
:105A70000B4606217844FFF7D3FA5A463346FAF725
:105A8000FEFC804669488A465A46334604217844DB
:105A9000FFF7C6FA5A463346FAF7F1FC00223B46B6
:105AA000FAF746FC02460B4640465146FAF759FDC6
:105AB0002A462346FAF7E3FC06B02A462346BDE809
:105AC000F04DFAF735BC284624F0004100223D464F
:105AD0003B46FAF7D1FC4FF0FF32FAF74CFF06468F
